:020000040800F2
:10000000B82B00202507010805FF000807FF00089E
:1000100009FF00080BFF00080DFF000800000000AA
:100020000000000000000000000000000FFF0008BA
:1000300011FF00080000000013FF000815FF000872
:10004000490A01084D0A0108510A0108550A010828
:10005000590A01085D0A0108610A0108650A0108D8
:10006000690A01086D0A0108710A0108750A010888
:10007000790A010825FF00087D0A0108810A0108A4
:100080002FFF0008850A0108890A01088D0A010866
:10009000910A0108950A0108990A01089D0A0108B8
:1000A000A10A0108A50A0108A90A0108AD0A010868
:1000B00039FF00080000000000000000B10A01083C
:1000C000B50A0108B90A0108BD0A0108C10A0108F8
:1000D000C50A010843FF00084DFF000857FF00084C
:1000E000C90A010861FF00080000000000000000CC
:1000F0000000000000000000000000000000000000
:1001000000000000CD0A010800000000D10A01082B
:100110000000000000000000D50A0108D90A01080B
:10012000DD0A0108E10A0108E50A0108E90A0108F7
:10013000ED0A0108000000000000000000000000BF
:10014000F10A0108F50A0108F90A0108FD0A010887
:10015000010B01086BFF0008050B0108090B0108E2
:100160000D0B0108110B0108150B01080000000020
:10017000190B01081D0B0108210B010800000000EC
:10018000250B0108290B01082D0B010810B50400EF
:100190000021DFF8380801F0A3FD012010BD0000A8
:1001A00038B52DED028B040001F0B6FEDFF8B8572C
:1001B0002968401ADFF8B417086001F0ADFE286026
:1001C0009FED9E8ADFF8A80701680978522916D1A9
:1001D000016809790D2912D101684A786423016800
:1001E0008D780A214D4303FB02520168C9785218E9
:1001F000DFF8DC178A1800EE102AB0EE408AB8EE5D
:10020000480ADFF8D01781ED000A01F0D3FE04217F
:10021000DFF8C40701F0A3FF0120BDEC028B32BD63
:10022000F8B50600DFF8B447DFF8A8773868206033
:1002300094ED000A00F0D8FE84ED010A6068386091
:10024000786801F0BBFFDFF89827DFF8983701F0F6
:10025000D9FF04000D00386801F0B0FFDFF88027F7
:10026000DFF8843701F0CEFF22002B0002F0A0F867
:1002700002F05CF9786097ED010AD7ED030A30EEE1
:10028000200A87ED010A9FED6E0AD7ED010AF4EE10
:10029000400AF1EE10FA01D587ED010A97ED010A47
:1002A000DFED680AB4EE600AF1EE10FA02DBDFF867
:1002B00018077860DFF83407017801291ED14188DA
:1002C00000EE101AB8EE400AD7ED010AB4EE600A4B
:1002D000F1EE10FA0BDB408800EE100AB8EE400A8F
:1002E000D7ED010A30EE600A87ED010A06E040888A
:1002F00000EE100AB8EE400A87ED010A3100C9B2DB
:10030000DFF8D40601F02BFF0120F2BD70B52DED12
:10031000048B040000219FED498ADFED488ADFF855
:10032000D056287800282BD1DFF8A80690ED010AD6
:10033000F3EE040AB4EE600AF1EE10FA01D50026DD
:100340002BE090ED010ADFED400A30EE200ADFEDF0
:100350003F0A80EE200AAA886888121A00EE902AC6
:10036000F8EEE00A688801EE100AB8EE411A00EED5
:10037000201AB0EE418ABCEEC80A10EE106A0CE0FA
:10038000E8886A88904201D26E8806E0A888EA88E8
:10039000904201D2AE8800E0EE88330000220021B6
:1003A000DFF8280601F0D3FC6888301A00EE100A46
:1003B000B8EE400AA9886888091A00EE901AF8EE8B
:1003C000E00A80EE209AB3EE000AF1EE000A49EE50
:1003D000000ADFF80006C0ED020A2100C9B2DFF80A
:1003E000F80501F0BCFE0120BDEC048B70BD10B51A
:1003F0000400DFF8E005002141602100C9B2DFF808
:10040000D80501F0ACFE012010BD10B5040021009C
:10041000C9B2DFF8C40501F0A2FE012010BD10B57D
:100420000400DFF8D00502F0EEF82100C9B2DFF8D1
:10043000A80501F094FE012010BD0000000000009E
:100440000000484201001644000048C200800944F0
:100450002DE9F84F2DED028B92B00400B0EE408AEA
:100460003221002204AD280002F0D4F85FF0000B26
:1004700000200390002002900020019000200090B6
:1004800000252000C0B2002803D002280FD005D3D9
:1004900016E0DFF8400580ED038A11E0DFF834054F
:1004A000DFF838150968016180ED058A08E0DFF89A
:1004B0002405DFF828150968816180ED078AFFE7C8
:1004C000DFF810A59AED030A02F0CCFA06009AEDC7
:1004D000040A02F0C7FA07009AED050A02F0C2FA10
:1004E00080469AED060A02F0BDFA81469AED070AA7
:1004F00002F0B8FA824604A83100090E5A46D2B278
:1005000081541BF1010B3100090C5A46D2B28154BF
:100510001BF1010B3100090A5A46D2B281541BF17A
:10052000010B5946C9B246541BF1010B3900090EA3
:100530005A46D2B281541BF1010B3900090C5A46BC
:10054000D2B281541BF1010B3900090A5A46D2B2CA
:1005500081541BF1010B5946C9B247541BF1010BE1
:100560004146090E5A46D2B281541BF1010B414655
:10057000090C5A46D2B281541BF1010B4146090ABB
:100580005A46D2B281541BF1010B5946C9B200F848
:1005900001801BF1010B4946090E5A46D2B2815423
:1005A0001BF1010B4946090C5A46D2B281541BF18A
:1005B000010B4946090A5A46D2B281541BF1010B7C
:1005C0005946C9B200F801901BF1010B5146090EC2
:1005D0005A46D2B281541BF1010B5146090C5A46BE
:1005E000D2B281541BF1010B5146090A5A46D2B2CC
:1005F00081541BF1010B5946C9B200F801A01BF14F
:10060000010B5A46D2B292B204A9DFF8880902F06F
:10061000B1FA12B0BDEC028BBDE8F18F2DE9F843C1
:1006200000240025002600275FF00008DFF8640999
:100630000078C0B2FF2800F08F80DFF85C090178F5
:10064000C9B20906DFF854090078C0B251EA004186
:10065000DFF84C090078C0B251EA0021DFF8440904
:100660000078C0B201430C00DFF83C090178C9B240
:100670000906DFF838090078C0B251EA0041DFF816
:1006800030090078C0B251EA0021DFF8280900786B
:10069000C0B201430D00DFF820090178C9B2090694
:1006A000DFF818090078C0B251EA0041DFF81009FC
:1006B0000078C0B251EA0021DFF808090078C0B222
:1006C00001430E00DFF800090178C9B20906DFF81E
:1006D000FC080078C0B251EA0041DFF8F408007865
:1006E000C0B251EA0021DFF8EC080078C0B2014343
:1006F0000F00DFF8E4080178C9B20906DFF8DC086A
:100700000078C0B251EA0041DFF8D4080078C0B2E6
:1007100051EA0021DFF8CC080078C0B201438846D6
:10072000DFF8B09219F10C01200002F0C3F819F1C2
:100730001001280002F0BEF819F11401300002F097
:10074000B9F819F11801380002F0B4F819F11C01D8
:10075000404602F0AFF80EE09E480021C1609FEDD8
:10076000620A80ED040A80ED050A9FED970A80ED8C
:10077000060A80ED070ABDE8F18370B50024002564
:10078000DFF8C80B0078C0B2FF283DD0DFF8686BF7
:10079000DFF8BC0B00783070DFF8B80B0178C9B215
:1007A0000906DFF8B40B0078C0B251EA0041DFF867
:1007B000AC0B0078C0B251EA0021DFF8A40B00783E
:1007C000C0B201430C00DFF89C0B0178C9B20906E6
:1007D000DFF8200C0078C0B251EA0041DFF8180CB5
:1007E0000078C0B251EA0021DFF8100C0078C0B2E6
:1007F00001430D0016F10801200002F05BF8311DE5
:10080000280002F057F808E0DFF8EC0A0021017038
:1008100035498160DFF87417416070BD78B58DB0DF
:1008200004000D00322100226E46300001F0F2FE7D
:1008300000262000290080B289B2884223D26C4869
:10084000448085806946428892B2120A3300DBB246
:10085000CA54761C42883300DBB2CA54761C8288A4
:1008600092B2120A3300DBB2CA54761C808832007E
:10087000D2B28854761C3200D2B292B26946DFF806
:10088000DC0B02F077F90EB070BDDFF8D00B00780A
:10089000C0B2FF281FD056494888DFF8C42B127811
:1008A000D2B250EA022048804A88DFF8B80B0078BC
:1008B000C0B202434A808888DFF8AC2B1278D2B2EB
:1008C00050EA022088808A88DFF8A00B0078C0B246
:1008D00002438A8005E046480021418040F6FF71CE
:1008E00081807047000000000000484278B58DB05C
:1008F00004000D00322100226E46300001F08AFE15
:1009000000262000C0B202282BDA280080B232284C
:1009100027DB280080B240F25921884221DA33488F
:1009200004704580694600223300DBB2CA54761C4D
:1009300002783300DBB2CA54761C428892B2120AA3
:100940003300DBB2CA54761C40883200D2B28854DD
:10095000761C3200D2B292B26946DFF8140C02F073
:1009600009F90EB070BD0000802700207C27002010
:100970004C0C0020DFF8F80B0078C0B2FF281BD029
:10098000DFF8F00B00781949087808700A78DFF86A
:10099000E80B007802430A704888DFF8E02B1278F1
:1009A000D2B250EA022048804A88DFF8D40B00789F
:1009B000C0B202434A8005E00C48002101704FF4A8
:1009C000167141807047000000001644F826002090
:1009D00030EBFFFF7426002034070020EC250020B8
:1009E0009A9999999999E93F9999C93F782700204F
:1009F000502700200C2700202DE9F34F81B02DED6A
:100A0000028BA2B0F0EE408AB0EE608A6421002230
:100A100008AC200001F0FEFD5FF0000B9DF8940093
:100A2000002805D0022817D00CD303281FD029E0B6
:100A3000DFF8FC0B9DF898100172C0ED038A80ED81
:100A4000048A1FE0DFF8E80B9DF898100175C0EDEF
:100A5000068A80ED078A15E0DFF8D40B9DF8981020
:100A600080F82010C0ED098A80ED0A8A0AE0DFF8DC
:100A7000C00B9DF8981080F82C10C0ED0C8A80ED0A
:100A80000D8AFFE7002001900020009000200790D1
:100A90000020069000200590002004900020039084
:100AA00000200290DFF8884B94ED030A01F0DAFF92
:100AB000019094ED040A01F0D5FF009094ED060A30
:100AC00001F0D0FF050094ED070A01F0CBFF06000E
:100AD00094ED090A01F0C6FF070094ED0A0A01F03F
:100AE000C1FF804694ED0C0A01F0BCFF814694EDF5
:100AF0000D0A01F0B7FF824608A8217A5A4692B241
:100B000081541BF1010B0199090E5A4692B281548E
:100B10001BF1010B0199090C5A4692B281541BF149
:100B2000010B0199090A5A4692B281541BF1010B3B
:100B300001995A4692B281541BF1010B0099090E9A
:100B40005A4692B281541BF1010B0099090C5A4686
:100B500092B281541BF1010B0099090A5A4692B2D4
:100B600081541BF1010B00995A4692B281541BF13A
:100B7000010B217D5A4692B281541BF1010B2900D1
:100B8000090E5A4692B281541BF1010B2900090C3F
:100B90005A4692B281541BF1010B2900090A5A46A8
:100BA00092B281541BF1010B594689B245541BF195
:100BB000010B3100090E5A4692B281541BF1010B10
:100BC0003100090C5A4692B281541BF1010B3100DD
:100BD000090A5A4692B281541BF1010B594689B257
:100BE00046541BF1010B94F820105A4692B28154DE
:100BF0001BF1010B3900090E5A4692B281541BF1C8
:100C0000010B3900090C5A4692B281541BF1010BB9
:100C10003900090A5A4692B281541BF1010B594618
:100C200089B247541BF1010B4146090E5A4692B254
:100C300081541BF1010B4146090C5A4692B2815472
:100C40001BF1010B4146090A5A4692B281541BF12D
:100C5000010B594689B200F801801BF1010B94F891
:100C60002C105A4692B281541BF1010B4946090ED1
:100C70005A4692B281541BF1010B4946090C5A465F
:100C800092B281541BF1010B4946090A5A4692B2AD
:100C900081541BF1010B594689B200F801901BF1F8
:100CA000010B5146090E5A4692B281541BF1010BB9
:100CB0005146090C5A4692B281541BF1010B514620
:100CC000090A5A4692B281541BF1010B594689B266
:100CD00000F801A01BF1010B5A4692B208A9DFF8F7
:100CE000480B01F047FF22B0BDEC028BBDE8F78F47
:100CF0002DE9F84F00200090002400250026002751
:100D00005FF000085FF000095FF0000ADFF8180BE1
:100D10000078C0B2FF2800F0F780DFF814B9DFF8E0
:100D2000680B00788BF80800DFF8600B0178C9B217
:100D30000906DFF85C0B0078C0B251EA0041DFF829
:100D4000540B0078C0B251EA0021DFF84C0B007858
:100D5000C0B201430091DFF8440B0178C9B2090623
:100D6000DFF83C0B0078C0B251EA0041DFF8340BE9
:100D70000078C0B251EA0021DFF82C0B0078C0B235
:100D800001430C00DFF8240B00788BF81400DFF827
:100D9000200B0178C9B20906DFF8180B0078C0B241
:100DA00051EA0041DFF8100B0078C0B251EA00218F
:100DB000DFF8A00B0078C0B201430D00DFF8980BFC
:100DC0000178C9B20906DFF8940B0078C0B251EA85
:100DD0000041DFF88C0B0078C0B251EA0021DFF847
:100DE000840B0078C0B201430E00DFF87C0B007862
:100DF0008BF82000DFF8740B0178C9B20906DFF820
:100E0000700B0078C0B251EA0041DFF8C00B0078E7
:100E1000C0B251EA0021DFF8B80B0078C0B201433C
:100E20000F00DFF8B00B0178C9B20906DFF8A80B94
:100E30000078C0B251EA0041DFF8A00B0078C0B2E0
:100E400051EA0021DFF8980B0078C0B201438846D0
:100E5000DFF8900B00788BF82C00DFF88C0B017812
:100E6000C9B20906DFF8840B0078C0B251EA00412C
:100E7000DFF87C0B0078C0B251EA0021DFF8740B78
:100E80000078C0B201438946DFF86C0B0178C9B223
:100E90000906DFF8680B0078C0B251EA0041DFF8BC
:100EA000600B0078C0B251EA0021DFF8F40B007843
:100EB000C0B201438A461BF10C01009801F0FAFC14
:100EC0001BF11001200001F0F5FC1BF118012800B6
:100ED00001F0F0FC1BF11C01300001F0EBFC1BF1F8
:100EE0002401380001F0E6FC1BF12801404601F026
:100EF000E1FC1BF13001484601F0DCFC1BF1340140
:100F0000504601F0D7FC1FE0DFF8240701210172F1
:100F10009FED1D0A80ED030A80ED040A0021017592
:100F2000002181610021C161002180F82010002191
:100F3000416200218162012180F82C109FED130A8B
:100F400080ED0C0A80ED0D0ABDE8F18FF0EE402A2D
:100F50009FED0F3AF4EE601AF1EE10FA04D0B4EE01
:100F6000412AF1EE10FA02D1B0EE620A0BE032EE45
:100F7000E00A72EE413A20EE230A71EEE03A80EE8A
:100F8000230A30EE010A7047000048420000164470
:100F90000000000000080208020802080308020816
:100FA00004080208050802080608020807080208E3
:100FB00008080208090802080A0802080B080208C3
:100FC0000C0802080D0802080E0802080F080208A3
:100FD0001008020811080208120802081308020883
:100FE0001408020815080208F8B52DED028B9CB014
:100FF000B0EE408A0024DFF83816087A00280DD0B9
:101000000CAA2300DBB20C20434302EB030011F1D6
:10101000080292E8680080E86800641C087D0028E7
:101020000DD00CAA2300DBB20C20434302EB0300DB
:1010300011F1140292E8680080E86800641C91F8DD
:10104000200000280DD00CAA2300DBB20C20434363
:1010500002EB030011F1200292E8680080E86800CA
:10106000641C91F82C0000280CD00CAA2300DBB2E1
:101070000C20434302EB03002C3191E82C0080E864
:101080002C00641C2000C0B2022802DAB0EE480A2C
:101090002DE100200100C9B22200D2B2521E9142BD
:1010A0003EDA411C0A002300D2B2DBB29A4235D2AA
:1010B0000C220CAB0D00EDB255432B4493ED010A0D
:1010C0000CAB0500EDB255432B44D3ED010AB4EE51
:1010D000600AF1EE10FA1FD50CAB18AD0600F6B29F
:1010E00056431E4496E8805085E880500500EDB2D6
:1010F00055431D440E00F6B256431E4496E88050F8
:1011000085E880500D00EDB202FB05F21A4418ABE1
:1011100093E8E00082E8E000491CC3E7401CB9E71F
:1011200000200100C9B22200D2B2521E914236DA2A
:101130000C210CAA0300DBB24B431A4492ED010AC6
:101140000CAA0300DBB24B431A44D2ED040AB4EEFE
:10115000600AF1EE10FA12D00CAA0300DBB24B4386
:101160001A4492ED020A0CAA0300DBB24B431A4464
:10117000D2ED050AB4EE600AF1EE10FA0DDB0022A2
:101180000CAB0500EDB24D435A550CAA0300DBB27F
:1011900001FB03F1114400220A73401CC1E7002542
:1011A000002108002200C0B2D2B2904218D20C2214
:1011B0000CAB0800C0B25043185C00280ED0684643
:1011C0002E00F6B2564330440E00F6B202FB06F291
:1011D0001A4492E8C80080E8C8006D1C491CE0E78A
:1011E0002800C0B2022802DAB0EE480A7FE0684662
:1011F00090ED010AB4EE480AF1EE10FA0CDB90ED26
:10120000052AD0ED041A90ED021AD0ED010AB0EED5
:10121000480AFFF79BFE6AE000263000C0B22900B2
:10122000C9B2491E88423CDA0C2069463200D2B26B
:101230004243114491ED010AB4EE408AF1EE10FAF6
:101240002DDB69463200D2B24243114491ED040ACB
:10125000B4EE480AF1EE10FA21DB69463200D2B250
:101260004243114491ED052A69463200D2B242430D
:101270001144D1ED041A69463200D2B242431144FE
:1012800091ED021A69463200D2B200FB02F0084426
:10129000D0ED010AB0EE480AFFF758FE27E0761CB1
:1012A000BBE70C2069462A00D2B242431144091F11
:1012B00091ED002A69462A00D2B24243114408390E
:1012C000D1ED001A69462A00D2B2424311441039C6
:1012D00091ED001A69462A00D2B200FB02F00844E0
:1012E0001438D0ED000AB0EE480AFFF72FFE1CB00C
:1012F000BDEC028BF1BD00003827002078B591B01D
:1013000004000D003C21002202AE300001F082F901
:101310000020ADF8040003221A21DFF8F00800785D
:1013200002F08CFA0B2000900023DFF8E42801A9DA
:1013300002A801F0A9FA4FF47A73BDF8042002A9BB
:10134000DFF8D00802F0E3FC12B070BD0010020814
:101350000210020803100208041002080510020817
:10136000061002080710020870B52DED028B92B02E
:1013700004000D003C21002202AE300001F04AF9C9
:101380000020ADF80400DFF8900801F0C3FBDFF89F
:101390008C080021C1609FEDA48A80ED048A80ED55
:1013A000058ADFEDA28AC0ED068AC0ED078ADFF864
:1013B000700801F0AFFBDFF86C0800210170C0ED90
:1013C000028A80ED018A0D2000900023DFF8582862
:1013D00001A902A801F058FA4FF47A73BDF804206D
:1013E00002A9DFF8300802F092FC12B0BDEC028BCB
:1013F00070BD000008100208091002080A10020857
:1014000038B590B004000D0003A8DFF82018322290
:1014100003F07EFCDFF81808D0E90023CDE90123B2
:1014200003A801900023DFF8E407427802A903A88B
:1014300001F0B5F902200090002395A202A903A8AB
:1014400001F022FA4FF47A73BDF808200199DFF811
:10145000C40702F05CFC11B030BD000000180208A7
:1014600002180208031802080418020805180208E6
:10147000F8B504000D0000262068007830283FDB16
:10148000206800783A283BDA002700200100C9B222
:10149000A28889B291420FD221680200D2B2895C3F
:1014A000302905DB21680200D2B2895C3A2900DBD1
:1014B00002E07F1C401CE9E73900C9B2206801F056
:1014C0009BFA0600B6F5807F10D2DFF840078278DD
:1014D0003100C9B2007802F0B1F94FF47A730222F8
:1014E000A9A1DFF8300702F012FC12E04FF47A7382
:1014F0000522DFF84017DFF81C0702F008FC08E0BF
:101500004FF47A730522DFF82C17DFF8080702F092
:10151000FEFBF1BD38B590B004000D0003A8DFF864
:101520001817322203F0F4FBDFF81007D0E900238C
:10153000CDE9012303A801900023DFF8D0068278CB
:1015400002A903A801F02BF902200090002350A269
:1015500002A903A801F098F94FF47A73BDF80820A6
:101560000199DFF8B00602F0D2FB11B030BD0000E7
:1015700000200208022002080320020804200208BA
:1015800005200208F8B504000D0000262068007848
:1015900030283EDB206800783A283ADA002700201D
:1015A0000100C9B2A28889B291420FD2216802001B
:1015B000D2B2895C302905DB21680200D2B2895C95
:1015C0003A2900DB02E07F1C401CE9E73900C9B280
:1015D000206801F011FA06000C2E10D2DFF82C065C
:1015E0003200D2B24178007802F028F94FF47A73D1
:1015F000022265A1DFF81C0602F089FB12E04FF41D
:101600007A730522DFF82C16DFF8080602F07FFB5C
:1016100008E04FF47A730522DFF81816DFF8F405B6
:1016200002F075FBF1BD00000000484200001644C6
:10163000EC25002038B590B004000D0003A8DFF8B9
:101640000016322203F064FBDFF8F805D0E900232E
:10165000CDE9012303A801900023DFF8EC0502780F
:1016600002A903A801F09BF802200090002308A221
:1016700002A903A801F008F94FF47A73BDF8082015
:101680000199DFF8900502F042FB11B030BD000077
:101690000D0A0000F8B504000D000026206800784F
:1016A000302839DB206800783A2835DA0027002016
:1016B0000100C9B2A28889B291420FD2216802000A
:1016C000D2B2895C302905DB21680200D2B2895C84
:1016D0003A2900DB02E07F1C401CE9E73900C9B26F
:1016E000206801F089F90600022E0BD2DFF85805B8
:1016F00006704FF47A73022223A1DFF8180502F076
:1017000006FB12E04FF47A730522DFF82815DFF8A4
:10171000040502F0FCFA08E04FF47A730522DFF8C2
:101720001415DFF8F00402F0F2FAF1BD38B590B00C
:1017300004000D0003A8DFF81415322203F0E8FAC4
:10174000DFF80C05D0E90023CDE9012303A80190BF
:101750000023DFF8F404C28802A903A801F01FF8EF
:1017600002200090002398A202A903A801F08CF89F
:101770004FF47A73BDF808200199DFF8980402F05D
:10178000C6FA11B030BD00004F4B0000F8B50400A0
:101790000D0000262068007830283ADB20680078A9
:1017A0003A2836DA002700200100C9B2A28889B29F
:1017B00091420FD221680200D2B2895C302905DB48
:1017C00021680200D2B2895C3A2900DB02E07F1C6A
:1017D000401CE9E73900C9B2206801F00DF90600A4
:1017E000B6F5805F0BD2DFF86004C6804FF47A73E1
:1017F0000222AAA1DFF81C0402F089FA12E04FF4D9
:101800007A730522DFF82C14DFF8080402F07FFA5F
:1018100008E04FF47A730522DFF81814DFF8F403B8
:1018200002F075FAF1BD00000028020838B590B04A
:1018300004000D0003A8DFF81C14322203F068FA3C
:10184000DFF81404D0E90023CDE9012303A80190B7
:101850000023DFF8F403428802A903A800F09FFFE9
:1018600002200090002358A202A903A801F00CF85E
:101870004FF47A73BDF808200199DFF8980302F05D
:1018800046FA11B030BD0000022802080328020801
:10189000042802080528020806280208072802086A
:1018A00008280208092802080A2802080B2802084A
:1018B0000C2802080D2802080E280208F8B50400BA
:1018C0000D0000262068007830283ADB2068007878
:1018D0003A2836DA002700200100C9B2A28889B26E
:1018E00091420FD221680200D2B2895C302905DB17
:1018F00021680200D2B2895C3A2900DB02E07F1C39
:10190000401CE9E73900C9B2206801F075F806000B
:10191000B6F5805F0DD2CC488188300080B2FEF7EA
:101920007DFF4FF47A7302225CA1BA4802F0EFF90E
:101930000EE04FF47A730522BE49B64802F0E7F98B
:1019400006E04FF47A730522BA49B24802F0DFF993
:10195000F1BD00000F280208102802081128020813
:101960001228020813280208142802081528020861
:101970001628020838B590B004000D0003A8B74936
:10198000322203F0C5F9B648D0E90023CDE901239E
:1019900003A801900023AC48828802A903A800F0A4
:1019A000FEFE02200090002307A202A903A800F077
:1019B0006BFF4FF47A73BDF808200199954802F047
:1019C000A6F911B030BD00000D0A0000172802086A
:1019D00018280208192802081A2802081B280208D9
:1019E0001C2802081D2802081E2802081F280208B9
:1019F0002028020821280208222802082328020899
:101A000024280208F8B504000D000026206800789C
:101A100030283ADB206800783A2836DA00270020A0
:101A20000100C9B2A28889B291420FD22168020096
:101A3000D2B2895C302905DB21680200D2B2895C10
:101A40003A2900DB02E07F1C401CE9E73900C9B2FB
:101A5000206800F0D1FF0600B6F5805F0DD231009E
:101A600089B279484088FEF7D9FE4FF47A73022292
:101A70000AA1684802F04BF90EE04FF47A73052290
:101A80006C49644802F043F906E04FF47A7305228A
:101A90006849604802F03BF9F1BD00004F4B00007F
:101AA0002528020838B590B004000D0003A86D4940
:101AB000322203F02DF96C48D0E90023CDE901234F
:101AC00003A80190FE23554890ED020ADFED4E0A6F
:101AD00020EE200ABDEEC00A10EE102A02A903A8CB
:101AE00000F05DFE052000900023604A02A903A8D3
:101AF00000F0CAFE4FF47A73BDF8082001994548FA
:101B000002F005F911B030BD80B5FEF787FDFEF794
:101B100034FEFEF7BAFEFEF72DFFFFF7E9F8544852
:101B20005449C0F8A4135449C0F8B4135349C0F839
:101B3000C4135349C0F8D4135249C0F8E4135249AE
:101B4000C0F8F4135149C0F804145149C0F81414F2
:101B50005049C0F824145049C0F834144F49C0F813
:101B600044144F49C0F854144E49C0F864144E4907
:101B7000C0F874144D49C0F8841403F02CF903F034
:101B80001BF901BD70B50020002400252800C0B25B
:101B9000072836DA464E2800C0B2000130444078AB
:101BA00001282CD1012004002800C0B200013044DB
:101BB000406800280ED000F0AFF92900C9B2090131
:101BC00031444968401A2900C9B209013144896881
:101BD000884214D300202900C9B209013144487059
:101BE00000F09AF92900C9B209013144486028007F
:101BF000C0B22900C9B209013144C96888476D1CC7
:101C0000C4E72000C0B270BD0000C842E806002052
:101C1000C8070108402000200008020874260020A0
:101C20000010020838270020C404010870F40008DE
:101C3000C8090108B809010828000108D0090108ED
:101C40005C000108D8090108502700209000010815
:101C5000E0090108C4000108E8090108F8000108CA
:101C6000F00901082C010108F8090108C009010860
:101C7000AC070020FD1200086913000801140008D9
:101C800071140008151500088515000835160008A0
:101C9000951600082D1700088D1700082D1800084C
:101CA000BD18000875190008051A0008A51A0008D3
:101CB0003407002010B50400002C01D101200EE0F3
:101CC0002079002804D100206071200003F0D2F8B0
:101CD000022020710020206101202071002010BD11
:101CE00010B402005079012801D102202DE001201A
:101CF00050710220107110680368012411F0100067
:101D0000844023431068036000290CD110680068E8
:101D100010F03C00042813D11068406850F0010016
:101D2000136858600CE01068006810F47010B0F58B
:101D3000802F05D11068406850F002001368586089
:101D40000120107100205071002010BC704738B481
:101D500004000020009020680090002905D1009D1B
:101D600012F108004519009504E0009D12F11400DD
:101D70004519009500980360002032BC70472DE99A
:101D8000F04705000E0014005FF0000930690128DB
:101D9000306804286879012801D10220BAE00120C6
:101DA000687102202871306804285AD100F0B4F814
:101DB0008146002C1CD12868406B000411D500F02E
:101DC000ABF8B0EB09000228F5D32868406B00049B
:101DD000F1D5286950F008002861032028710320FC
:101DE00098E0012003F07CF8B069296808641BE0E2
:101DF0002868406B002811D500F08EF8B0EB090080
:101E00000228F5D32868406B0028F1D5286950F0E6
:101E1000080028610320287103207BE0012003F0E3
:101E20005FF8B069296848642868816C40F2FF3225
:101E300014F0100082409143F26914F010008240C7
:101E40001143286881642868C16CFF2214F01000D7
:101E500082409143326A14F0100082401143286896
:101E6000C1643069012810D12868816B1F2214F0E9
:101E70001000824091437069804614F0100018FAF7
:101E800000F001430F00286887632868C16B0722B0
:101E900014F01000824091433268B0680243F06849
:101EA000024314F0100012FA00F001432868C163E5
:101EB000286803684FF4804C14F010001CFA00FCF2
:101EC00033EA0C03286803602868036840F6FC7C4A
:101ED00014F010001CFA00FC33EA0C03D6F804C01E
:101EE00014F010001CFA00F003432868036028680F
:101EF000D0F800E05FF0C00A14F010001AFA00FAFF
:101F00003EEA0A0E2868C0F800E00120287100208F
:101F100068710020BDE8F08701480068704700BF85
:101F20007027002038B504000D00DFF8FC010168BF
:101F3000200000F006F8A84201D3012000E00020B4
:101F400032BD814204D25FF0FF32101A081800E05F
:101F5000081A704738B52DED048B08EE100A0C00F6
:101F60001500DFED438A2800C0B2FB2810DBB8EE75
:101F7000C89A2800C0B24042C0B200F08BF829EEE7
:101F8000009A00212000B0EE490A00F0B1F80EE0FE
:101F9000B8EEC89A2800C0B200F07CF889EE009A2A
:101FA0002900C9B22000B0EE490A00F0A1F8BDEC4A
:101FB000048B31BD10B400210A00838892B29A428A
:101FC00006D2002203680C00A4B21A55491CF3E79C
:101FD0000022828010BC704710B4040013005A1E07
:101FE0009BB2002B02D02170641CF7E710BC704735
:101FF00070B504000D001600DFF824010078210000
:10200000C9B2884209D3DFF824211068002804D01F
:10201000310089B228001268904770BD38B50400BD
:102020000D00280002F070FF020092B2290020008B
:10203000C0B2FFF7DDFF31BD70B504000D00280010
:1020400002F062FF020092B229002000C0B2FFF746
:10205000CFFFDFF8DC603068002807D0280002F0EE
:1020600053FF010089B228003268904770BD00001C
:102070000000000030B404000D0013005A1E9BB293
:10208000002B04D02B7823706D1C641CF5E730BC4A
:102090007047000010B504002000C0B2FB2816DB1A
:1020A0002000C0B2D0F5807002F04AFF41EC110B65
:1020B0009FED200B02F059FF53EC102B0020194923
:1020C00002F05CFF00F032FA00EE100A0FE0200090
:1020D000C0B203F077F841EC110B9FED160B02F044
:1020E00044FF51EC100B00F021FA00EE100A10BD75
:1020F00038B52DED028B82B0B0EE408A04000D00A1
:1021000018EE100A00F05AF8CDE900012A000B4938
:10211000200003F065F802B0BDEC028B31BD000079
:102120009E0C00200000F03F8C2700209427002008
:10213000902700200000000000002440300A010821
:10214000020001200B00DBB21B0113445870002079
:102150000B00DBB21B01134458600120704738B5F7
:1021600004000D0001202900C9B209012144487072
:10217000FFF7D2FE2900C9B20901214448600120BD
:1021800032BD30B4002513E050F8042BD30744BF10
:10219000A9F101039A18091F042942F8045BFAD235
:1021A00013468C0744BF15809B1CC90748BF1D7090
:1021B00050F8041B0029E7D130BC7047C0F3C75169
:1021C00081B1FF2906D0C110400721F0E04101F1A3
:1021D0006051704741020CBF40F4E0016FF00041D4
:1021E0000020704700F0004100020AD0B0FA80FCE5
:1021F00000FA0CF001F16051A1EB0C5101EBD02180
:1022000040057047B0B581EA030C0CF0004C40F279
:10221000FF7515EA11541DBF15EA1357AC42AF42C2
:1022200039E0E41923EA455343F48013C90241F02D
:10223000004141EA505EC7021100A7FB02020028DC
:102240004FF00000EEFB01204FF00001E3FB0721FF
:1022500018BF42F00102401800214941E3FB0E0182
:10226000A4F580640F0302D252004041494154F169
:1022700001046CDD470872F1004250F1000051EB9F
:102280000451A1F580115CBF41EA0C01B0BD4CEADC
:1022900005510020B0BD05EA1357AC4214BFAF4250
:1022A00041E050EA410E1CBF52EA430E02E0614693
:1022B0000020B0BD24423C441BD15FEA070EF6D09B
:1022C000090302BF01460020AEF1140EB1FA81F7F6
:1022D000AEEB070401FA07FE0C37C7F1200100FA44
:1022E00007F7C8404EEA000E23EA455343F4801333
:1022F000A2E733F00043B3FA83F704BFB2FA82FED9
:1023000077440B3FE41BB7F1200E2FBF02FA0EF308
:10231000BB40C7F1200E22FA0EFE38BF43EA0E037F
:10232000BA40641C82E750EA410E14BF52EA430EE1
:102330006FF000014FF4001717EB430F8ABF1946E7
:1023400017EB410FB5E74CEA05510020B0BDD4F1C1
:102350000104B4F120070FDAC4F12007520828BFA6
:1023600042F0010210FA07F501FA07F7E1BF2A432C
:10237000E0403843E1400FE0352C98DCC7F1200401
:1023800052EA400220FA07F218BF42F0010231FA85
:1023900007F0A1400A43002172F1004250F1000011
:1023A00051EB0C01B0BD0268531C03601170704703
:1023B00070B44FF0004591EA030F42F139876B404A
:1023C000841A71EB030604D26E40001BB14112194E
:1023D00073414FF4001C1CEB410F34BF7CEB4306F0
:1023E00083E00C0DA4EB1356362E00F37C80012EF7
:1023F00045EAC32341DC43EA525312BFD2029202A0
:102400005B08240545EAC12141EA5051D2EBC020C6
:10241000994125D407D1B0FA80F610FA06F162D0BE
:102420000020203608E0B1FA81F6B140C6F1200262
:1024300020FA02F21143B0404FEAF474B4EB465470
:1024400034F001064FEA74040AD8D6F50016760D6A
:1024500004F00044F04061FA06F25040F140484078
:10246000C00A40EA415021F0004128BF5FEA500510
:1024700050F1000044EBD12135E0DB0A45EAC121EF
:10248000C90AB6F120050EDD42EA0242120CC5F17E
:10249000200603FA06F6EB4042EA06056D42984133
:1024A00061F100010DE062FA06F5F240554063FA71
:1024B00006FC82EA0C02F3405A406D42904161EB07
:1024C000030111F4801F05D1641E620502D06D0066
:1024D0004041494121F48011430875F1004350F116
:1024E000000041EB045170BC70471CEB410F15D24A
:1024F00023F0004352EA43060BD04FEA4C0CBCEBEE
:10250000410F04D80C0D661E342EB7DDEBE7801AA0
:10251000994150EA410608BF0021E4E708BF1CEBDF
:10252000430F28BF6FF00001DDE72E0001F00042ED
:102530008B1AA3F16051B1F5801F0ADBB1F17F6FF7
:102540001FD242EAC102C10071F1004142EB50705A
:1025500070470B15C3F10903212B10D2890241EA00
:10256000905180020128494141F0004121FA03F0D5
:10257000C3F12003994071F10041504170471000B0
:1025800070476FF0000013EB103F5CBF000E42EA93
:10259000C050704738B50400002C01D1012031E053
:1025A0004CF6CC402168086045F25550216808601F
:1025B000606821684860A06821688860FFF7ACFC0B
:1025C00005002068C06810F0070F0DD0FFF7A4FCCD
:1025D000401B41F602018842F3D32068C06810F026
:1025E000070FEED003200DE020680069E168884203
:1025F00003D0E0682168086103E04AF6AA20216858
:102600000860002032BD01004AF6AA200A68106066
:102610000020704762F30F2262F31F42401810F04F
:10262000030308D0C91A1FD3DB0748BF00F8012DE8
:1026300028BF20F8022D130030B414461546103977
:1026400028BF20E93C00FAD8490728BF20E90C0040
:1026500048BF40F8042D890028BF20F8022D48BF4C
:1026600000F8012D30BC7047C91818BF00F8012DC3
:10267000CB0728BF00F8012D7047000001000800BB
:10268000C0B2002801D1012021E00800C0B2FF281B
:1026900001D10A201BE00800C0B2FE2801D164204D
:1026A00015E00800C0B2FD2802D14FF47A700EE0A8
:1026B0000800C0B2FC2802D142F2107007E0080006
:1026C000C0B2FB2802D1DFF8980300E00120704778
:1026D0002DE9F24F82469346002000210A2600276A
:1026E000B046B946009A1588BBF1000F08D5DBF15A
:1026F00000042D202A0092B20AF802006D1C00E0AE
:102700005C462000002142464B4602F0FBFD0029BA
:1027100001D1002808D0A6FB080106FB091107FB20
:10272000081180468946ECE7404649460A220023C4
:1027300002F0E8FD06000F00002F01D1002E28D086
:102740002000002132003B0002F0DCFD3030290087
:1027500089B20AF801006D1CA0465FF00009200054
:10276000002132003B0002F0CDFDA6FB002306FB5A
:10277000013307FB0033B8EB020079EB03010400DF
:10278000300039000A22002302F0BCFD06000F00D1
:10279000D2E7009805802800C0B2BDE8F28F2DE98D
:1027A000FE4F06000F0090460020ADF8000000200C
:1027B000002400215FF0000BB7F80090B8F1000F83
:1027C00002D5D8F1000500E0454642463900300008
:1027D000FFF77EFFB7F800A0002D4FD09DF808004E
:1027E000FFF74CFF01008D4205D20A2045431BF143
:1027F000010B002DF7D15846C0B2002821D0504619
:102800000200D2B2324412F8012C2D2A06D0020066
:10281000D2B24B4692B29BB29A4208D13022030008
:10282000DBB2F2541AF1010ABBF1010BE3E702003B
:10283000D2B2324412F8012C0300DBB2F254401E33
:10284000DEE70A20B1FBF0F450468346002C15D099
:102850000A20B4FBF0F45846C0B2304410F8010C22
:102860005946C9B27054BBF1010B002CEED12E2099
:102870005946C9B270541AF1010AE7E7A7F800A057
:102880005046C0B2BDE8FE8FF0B4049C00252E0077
:10289000B6B2A6420BD20E88771C0F802F00BFB2B3
:1028A00017FA83F7D75DB6B287556D1CEFE7F0BC1A
:1028B000704700002DE9F34F81B02DED028B9FEDA5
:1028C000658A002401250026F7EE008A00273800DB
:1028D000C0B2202864DA0398F84010F00100040028
:1028E0003800C0B2172829DA18EE900AFFF766FC04
:1028F00082468B462000C0B202F064FC80468946C6
:102900003800C0B2D0F117005FF0FF31484302F049
:1029100017FB41EC110B9FED500B02F026FB51EC25
:10292000100B42464B46FFF76DFC52465B46FFF7E5
:102930003FFDFFF7FBFD08EE900A2FE03800C0B224
:102940001F2824DA3000C0B202F03CFC82468B46DD
:102950002000C0B202F036FC804689463800C0B282
:10296000173802F0EDFA41EC110B9FED3B0B02F032
:10297000FCFA51EC100B42464B46FFF743FC524623
:102980005B46FFF715FD02F0D5FD060006E02000CE
:10299000C0B2012802D15FF0FF3005007F1C96E72E
:1029A000280040B202F0CCFA804689463000C0B21E
:1029B0007F3802F0C5FA41EC110B9FED270B02F0B6
:1029C000D4FA51EC100B42464B46FFF71BFC8046F5
:1029D000894618EE900AFFF7F1FB42464B46FFF797
:1029E00011FCFFF7A3FD00EE100A049880ED000A29
:1029F000BDEC028BBDE8F78F70B403000022002409
:102A0000002000252A000E00D2B2F6B2B2421FD238
:102A10002A00D2B29A5C302A0ADB2A00D2B29A5C2F
:102A20003A2A05DA2A00D2B29A5C303A140001E060
:102A3000002214002A00D2B2002A03D12200D2B20E
:102A4000100003E00A22504350FA84F06D1CD9E7CD
:102A500070BC704700000000000000000000004053
:102A6000A086010010B42DED010A00206A46002363
:102A7000042B07D2D45C1900C9B2C9008C40204392
:102A80005B1CF5E712BC70472DE9F74F82B00026BA
:102A90005FF0000A5FF0000B54465D460020009096
:102AA0000127DDF80C80DDF80890049810F0070F7E
:102AB0002BD10498C008002182468B4602F0B0FD5D
:102AC0004FF47A7002F0C4FD00200600300080B29E
:102AD0000021594517D801D3504514D2D8E9000137
:102AE00004000D0022002B004946002002F040FDAA
:102AF00007003800C0B2012805D019F1080918F103
:102B00000808761CE2E702F09CFD3800C0B205B070
:102B1000BDE8F08F70B50400012502F081FD0600CC
:102B20004FF47A7002F094FD3000C0B200280FD14B
:102B3000C4F3CC20B0F5807F05D20121C4F3CC20B2
:102B400002F0F2FD04E00121C4F3CC2002F0ECFD20
:102B50004FF47A7002F07CFD05000548016831F001
:102B60000201016002F06DFD2800C0B270BD0000DE
:102B7000142002402DE9F041C0B004000D00160001
:102B800000274FF480710022E8464046FFF742FDDF
:102B90002000FFF7BFFFA5208DF8000030008DF862
:102BA00001005FF000084046310080B289B28842DF
:102BB0000AD2404680B2285C6946424692B211442D
:102BC000887018F10108EEE7B61C300080B20821C9
:102BD000B6B20836361A90FBF1F001FB00663200FF
:102BE00092B269462000FFF74FFF002801D0002075
:102BF00000E0012040B0BDE8F081000002000020AC
:102C0000704730B40200DFF8840C00230468858824
:102C1000635583885B1C8380DFF8B03C5B78046875
:102C20008588635583885B1C8380012030BC704796
:102C3000F8B504000D00002000212E0022683300AA
:102C4000DBB2D25C23683700FFB23B445F7857EABF
:102C500002273A0092B2B2F5807F24DA380080B2BF
:102C6000002820D0DFF8240C21683200D2B2895C21
:102C700002688388D1548188491C81802168320090
:102C8000D2B21144497802688388D1548188491CA2
:102C90008180DFF8380C82783900C9B2007800F002
:102CA000CDFD012000E00020F2BD30B40200DFF8CD
:102CB000DC0B002304688588635583885B1C838054
:102CC000DFF8083C9B7804688588635583885B1C23
:102CD0008380012030BC7047F8B504000D0000204F
:102CE00000212E0022683300DBB2D25C236837005B
:102CF000FFB23B445F7857EA02273A0092B20B2AB0
:102D000020DADFF8880B21683200D2B2895C0268D1
:102D10008388D1548188491C818021683200D2B2D5
:102D20001144497802688388D1548188491C818084
:102D3000DFF8980B3A00D2B24178007800F07EFDBF
:102D4000012000E00020F2BD30B40200DFF83C0BAF
:102D5000002304688588635583885B1C8380012376
:102D600004688588635583885B1C8380012030BCA0
:102D7000704730B40200DFF8140B00230468858824
:102D8000635583885B1C83800023046885886355B2
:102D900083885B1C8380012030BC7047F0B4020044
:102DA0000023DFF82C0B90ED010ABDEEC00A10EEF7
:102DB000104ADFF8D80A25002DB22D120668878840
:102DC000F55585886D1C858005688688AC55858895
:102DD0006D1C85800120F0BC704730B40200DFF824
:102DE000AC0A002304688588635583885B1C838054
:102DF000322304688588635583885B1C83800120A7
:102E000030BC70472DE9F0412DED028B04000D0020
:102E1000002100202E0022683300DBB2D25C236840
:102E20003700FFB23B445F7857EA02273A0092B27C
:102E3000012A3CD1DFF8540A21683200D2B2895C01
:102E400002688388D1548188491C818021683200BE
:102E5000D2B21144497802688388D1548188491CD0
:102E60008180DFF8708A4046FFF754FEDFF8600A81
:102E70000021C1609FEDB28A80ED048A80ED058A51
:102E8000DFEDB08AC0ED068AC0ED078ADFF8480A98
:102E9000FFF740FE4046FFF73DFEDFF8400A002105
:102EA0000170C0ED028A80ED018A012000E000205F
:102EB000BDEC028BBDE8F081F8B504000D000026E2
:102EC000DFF80C0A90ED030AFFF7CCFD0100DFF8F4
:102ED000900D0A00120A03688788DA558288521C0E
:102EE000828002688388D1548288521C82800A00C2
:102EF000120E03688788DA558288521C82800A0085
:102F0000120C03688788DA558288521C828001205F
:102F1000F2BD2DE9F84304000D00002600200090CA
:102F20000027A84620684146C9B208448178206835
:102F30004246D2B21044C07850EA0120216842468D
:102F4000D2B2895C22684346DBB21A4492F80190FF
:102F500059EA012959EA0049DFF8040D216842467F
:102F6000D2B2895C02688388D1548188491C8180EF
:102F700021684246D2B21144497802688388D1540C
:102F80008188491C818021684246D2B211448978E7
:102F900002688388D1548188491C81802168424617
:102FA000D2B21144C97802688388D1548188491CFF
:102FB000818069464846FFF77DFC9DED000A0020B0
:102FC000FDF746FA0120BDE8F283F8B504000D00D4
:102FD0000026DFF8900C90ED040AFFF743FD010096
:102FE000DFF87C0C0A00120A03688788DA558288A9
:102FF000521C828002688388D1548288521C82804D
:103000000A00120E03688788DA558288521C828073
:103010000A00120C03688788DA558288521C828065
:103020000120F2BD2DE9F84304000D000026002028
:1030300000900027A84620684146C9B2084481781C
:1030400020684246D2B21044C07850EA012021687C
:103050004246D2B2895C22684346DBB21A4492F8F7
:10306000019059EA012959EA0049DFF8200821684E
:103070004246D2B2895C02688388D1548188491C57
:10308000818021684246D2B211444978026883881F
:10309000D1548188491C818021684246D2B21144B2
:1030A000897802688388D1548188491C818021688D
:1030B0004246D2B21144C97802688388D1548188CB
:1030C000491C818069464846FFF7F4FBDDED000AA4
:1030D000DFF8900B90ED000A01210020FDF78CFC39
:1030E0000120BDE8F283F8B504000D000026DFF8EA
:1030F000740B90ED070AFFF7B5FC0100DFF8600BD9
:103100000A00120A03688788DA558288521C828076
:1031100002688388D1548288521C82800A00120E71
:1031200003688788DA558288521C82800A00120C54
:1031300003688788DA558288521C82800120F2BD9C
:1031400000004842000016442DE9F84304000D0039
:103150000026002000900027A84620684146C9B2FA
:103160000844817820684246D2B21044C07850EAC0
:10317000012021684246D2B2895C22684346DBB214
:103180001A4492F8019059EA012959EA0049DFF8F6
:10319000FC0621684246D2B2895C02688388D15419
:1031A0008188491C818021684246D2B21144497805
:1031B00002688388D1548188491C818021684246F5
:1031C000D2B21144897802688388D1548188491C1D
:1031D000818021684246D2B21144C978026883884E
:1031E000D1548188491C818069464846FFF762FBBB
:1031F000DDED000ADFF86C0A90ED000A01210120E4
:10320000FDF7FAFB0120BDE8F283F8B504000D00DC
:103210000026DFF8500A90ED0A0AFFF723FC0100B0
:10322000DFF83C0A0A00120A03688788DA558288A8
:10323000521C828002688388D1548288521C82800A
:103240000A00120E03688788DA558288521C828031
:103250000A00120C03688788DA558288521C828023
:103260000120F2BD2DE9F84304000D0000260020E6
:1032700000900027A84620684146C9B208448178DA
:1032800020684246D2B21044C07850EA012021683A
:103290004246D2B2895C22684346DBB21A4492F8B5
:1032A000019059EA012959EA0049DFF8E00521684F
:1032B0004246D2B2895C02688388D1548188491C15
:1032C000818021684246D2B21144497802688388DD
:1032D000D1548188491C818021684246D2B2114470
:1032E000897802688388D1548188491C818021684B
:1032F0004246D2B21144C97802688388D154818889
:10330000491C818069464846FFF7D4FADDED000A82
:10331000DFF8500990ED000A01210220FDF76CFB57
:103320000120BDE8F283F8B504000D000026DFF8A7
:10333000340990ED0D0AFFF795FB0100DFF8200935
:103340000A00120A03688788DA558288521C828034
:1033500002688388D1548288521C82800A00120E2F
:1033600003688788DA558288521C82800A00120C12
:1033700003688788DA558288521C82800120F2BD5A
:103380002DE9F84304000D000026002000900027DE
:10339000A84620684146C9B2084481782068424660
:1033A000D2B21044C07850EA012021684246D2B21D
:1033B000895C22684346DBB21A4492F8019059EACC
:1033C000012959EA0049DFF8C40421684246D2B213
:1033D000895C02688388D1548188491C8180216876
:1033E0004246D2B21144497802688388D154818818
:1033F000491C818021684246D2B211448978026812
:103400008388D1548188491C818021684246D2B288
:103410001144C97802688388D1548188491C81800D
:1034200069464846FFF746FADDED000ADFF8340842
:1034300090ED000A01210320FDF7DEFA0120BDE82E
:10344000F28330B40200DFF8440400230468858866
:10345000635583885B1C8380DFF80C381B78046815
:103460008588635583885B1C8380012030BC70474E
:10347000F8B504000D00002000212E002268330062
:10348000DBB2D25C23683700FFB23B445F7857EA77
:1034900002273A0092B2022A1FDADFF8F00321680D
:1034A0003200D2B2895C02688388D1548188491C79
:1034B000818021683200D2B2114449780268838841
:1034C000D1548188491C8180DFF89C0741883800ED
:1034D000C0B2FDF70BFA012000E00020F2BD70B48D
:1034E0000200DFF8A803DFF880375C88A4B2240A62
:1034F00005688688AC558488641C84805B88046871
:103500008588635583885B1C8380012070BC70476D
:10351000F8B504000D00002000212E0022683300C1
:10352000DBB2D25C23683700FFB23B445F7857EAD6
:1035300002273A0092B2322A24DB380080B240F2ED
:10354000592188421EDAD14821683200D2B2895C02
:1035500002688388D1548188491C818021683200A7
:10356000D2B21144497802688388D1548188491CB9
:103570008180390089B2DFF8F0060078FDF7B6F9EE
:10358000012000E00020F2BD30B40200BF4800235B
:1035900004688588635583885B1C8380DFF8CC369C
:1035A0001B7804688588635583885B1C83800120B1
:1035B00030BC7047F0B40200002000250B001468F6
:1035C0001E00F6B2A65D14681F00FFB23C4464788A
:1035D00054EA06242600B6B2B6F5807F1EDA200033
:1035E00080B200281AD0A94815681E00F6B2AD5D59
:1035F00006688788F55585886D1C858015681E00CE
:10360000F6B235446D7806688788F55585886D1C57
:103610008580DFF858060470012000E00020F0BC2F
:10362000704730B4020099480023046885886355C8
:1036300083885B1C8380DFF834365B880468858868
:10364000635583885B1C8380012030BC7047F8B5CC
:1036500004000D00002000212E0022683300DBB2A0
:10366000D25C23683700FFB23B445F7857EA0227F9
:103670003A0092B2B2F5807F22DA380080B2002898
:103680001ED0824821683200D2B2895C02688388E9
:10369000D1548188491C818021683200D2B2114402
:1036A000497802688388D1548188491C8180DFF879
:1036B000BC058188380080B2FDF7B0F8012000E039
:1036C0000020F2BD30B402007048002304688588F1
:1036D000635583885B1C8380DFF890359B88046882
:1036E0008588635583885B1C8380012030BC7047CC
:1036F000F8B504000D00002000212E0022683300E0
:10370000DBB2D25C23683700FFB23B445F7857EAF4
:1037100002273A0092B2B2F5807F22DA380080B2F6
:1037200000281ED0594821683200D2B2895C026854
:103730008388D1548188491C818021683200D2B2AB
:103740001144497802688388D1548188491C81805A
:10375000390089B2DFF814054088FDF75FF80120D1
:1037600000E00020F2BD30B40200484800230468A5
:103770008588635583885B1C8380DFF8F034DB88A1
:1037800004688588635583885B1C8380012030BC76
:103790007047F0B40200002000250B0014681E00E2
:1037A000F6B2A65D14681F00FFB23C44647854EA88
:1037B00006242600B6B2B6F5807F1EDA200080B25D
:1037C00000281AD0314815681E00F6B2AD5D0668B3
:1037D0008788F55585886D1C858015681E00F6B2B2
:1037E00035446D7806688788F55585886D1C858019
:1037F000DFF87804C480012000E00020F0BC7047AE
:1038000038B504000D0001224FF480715FF0904044
:1038100002F079F90A2001F063FB4FF47A732A0071
:1038200092B22100DFF8480400F071FA00224FF450
:1038300080715FF0904002F066F931BDFEB5040082
:103840000D001600082100226F463800FEF7E2FE48
:1038500000271E48047045708670694602783B0058
:10386000DBB2CA547F1C42783B00DBB2CA547F1CD7
:1038700080783A00D2B288547F1C3A00D2B292B219
:103880006946DFF8F003FFF775F9F7BDEC06002095
:10389000DFF8E0030078C0B2FF280ED0DFF8D803CD
:1038A000DFF8D81309780170DFF8D4130978417074
:1038B000DFF8D0130978817007E0DFF8BC0300213E
:1038C00001701A214170032181707047E8060020C1
:1038D0007426002000080208001002083827002083
:1038E0002DE9F04F87B0040000275FF000085FF07B
:1038F00000090025DFF89023D2E90001CDE902019B
:103900000026DFF88823D2E90001CDE90401DFF8C1
:1039100050A35046FEF74EFBA0880828C0F29B81BA
:103920002068A188084410F8010C2168A28811447D
:1039300011F8021C51EA0021ADF81810A188891E67
:10394000206802F001F9ADF81A00BDF81A00BDF8C0
:103950001810884240F07D8120680078C649497877
:10396000884240F07681206880782168CF7857EAD5
:10397000002720684078032805D006286CD010283E
:1039800000F0C38061E1206800792168497951EA3B
:1039900000210D005FF001084046C0B2132836DA5E
:1039A0005FF01409DFF8E8B24046C0B209FB00F04E
:1039B00058444068390089B2884225D1280080B235
:1039C0004146C9B209FB01F15944896888421BDBB1
:1039D000002100204246D2B209FB02F25A44D268CA
:1039E000904701280FD14046C0B209FB00F058446F
:1039F00080682D1A4046C0B209FB00F90BEB0900A4
:103A00008068C71900E002E018F10108C4E7BAF8BD
:103A1000040000281FD0BAF80400022190FBF1F244
:103A200001FB1200002816D1DAF800000190BAF864
:103A30000400022190FBF1F080B200903B009BB2A9
:103A400003222068017804A802F09CF8BDF8141045
:103A50000498FFF7D5FEFAE004200100C9B2A2885D
:103A6000921E91420EDA21680200D2B2895C029A5B
:103A7000BDF80C30D154BDF80C10491CADF80C1039
:103A8000401CEAE75FF001084046C0B2132817DA8D
:103A900014227F4B4046C0B250431844406839005E
:103AA00089B2884209D1002102A8C4465FFA8CFC81
:103AB00002FB0CF21A441269904718F10108E3E77F
:103AC000BAF8040000281FD0BAF80400022190FBC5
:103AD000F1F201FB1200002816D1DAF80000019083
:103AE000BAF80400022190FBF1F080B200903B0094
:103AF0009BB206222068017804A802F094F8BDF871
:103B000014100498FFF77CFEA1E000200600206856
:103B100000792168497951EA00210D000720010050
:103B2000C9B2A288921E91420EDA21680200D2B276
:103B3000895C029ABDF80C30D154BDF80C10491CB8
:103B4000ADF80C10401CEAE7280080B24000216864
:103B5000897988424DD1BDF80C002168897989B2F4
:103B6000884246D15FF001084046C0B2132840DACF
:103B70005FF01409DFF818B14046C0B209FB00F04D
:103B800058444068390089B288422FD1280080B259
:103B90004146C9B209FB01F159448968884225DBD5
:103BA000310089B202A84246D2B209FB02F25A445D
:103BB00012699047012818D14046C0B209FB00F0B5
:103BC00058448068400010FA86F64046C0B209FBAF
:103BD00000F0584480682D1A4046C0B209FB00F935
:103BE0000BEB09008068C71900E002E018F101083A
:103BF000BAE7BAF80400002826D0BAF80400022177
:103C000090FBF1F201FB120000281DD120688078A2
:103C10002168C97851EA00210F00DAF8000001900C
:103C2000BAF80400022190FBF1F080B200903B0052
:103C30009BB210222068017804A801F0F4FFBDF8BF
:103C400014100498FFF7DCFD01E0002004E00120DF
:103C500002E0002000E0002007B0BDE8F08F000087
:103C6000EC060020EC2500207827002050270020BB
:103C7000301F002000000208E806002002000208B1
:103C80000300020804000208A8090108B00901089D
:103C90004005002010B50400002C01D1012035E0C2
:103CA000A0690028FFD1E06F002805D1002084F82A
:103CB0007800200002F088F82420E067206800687F
:103CC0004008400021680860606A002802D0200097
:103CD00000F038FC200000F0B9FA012801D10120E1
:103CE00014E02068406830F4904021684860206803
:103CF000806830F02A00216888602068006850F0F1
:103D0000010021680860200000F089FC10BD2DE949
:103D1000FC4706000D0017009846F06F202859D187
:103D2000002D03D0380080B2002801D1012052E0DC
:103D30000020C6F884002120F067FEF7EDF88146E8
:103D4000A6F85070A6F85270B068B0F5805F05D143
:103D50003069002802D10024AA4602E02C005FF05E
:103D6000000AB6F85200002822D0CDF800804B4659
:103D700000228021300000F0BBFC002803D020206E
:103D8000F067032027E0002C08D1BAF80000C00536
:103D9000C00D316808851AF1020A03E02078316805
:103DA0000885641CB6F85200401EA6F85200D8E7F9
:103DB000CDF800804B4600224021300000F098FCF6
:103DC000002803D02020F067032004E02020F067C3
:103DD000002000E00220BDE8F68770B505000C0069
:103DE0001600D5F88000202824D1002C03D0300004
:103DF00080B2002801D101201DE00020286628683B
:103E0000DFF8441488420ED02868406800020AD5C2
:103E1000286850E8000F50F0806001002A6842E8EE
:103E200000100028F4D1320092B22100280000F0E6
:103E3000AEFC00E0022070BD70B50400E56FD4F860
:103E4000806020688068000624D5212D22D120685A
:103E5000083050E8000F30F080000100206810F1B9
:103E6000080242E800100028F1D1206F00280ED08F
:103E7000206F02F045FA002809D0206F02F012FBF3
:103E8000202804D11020C4F8840003202CE0200056
:103E900000F053FD20688068400624D5222E22D1F0
:103EA0002068083050E8000F30F040000100206822
:103EB00010F1080242E800100028F1D1606F0028DC
:103EC0000ED0606F02F01CFA002809D0606F02F07B
:103ED000E9FA202804D11020C4F88400032003E06C
:103EE000200000F038FD002070BD2DE9F0470600ED
:103EF0003068C7693068D0F800803068D0F8089022
:103F000040F60F043C40002C0BD1B80609D55FEAFF
:103F1000886006D5B06E002802D03000B16E8847A8
:103F20008FE1002C00F0AA805FEAC97005D4DFF8A9
:103F30000C0618EA000F00F0A18017F00100C0B2D3
:103F400000280BD05FEAC85008D50120316808620C
:103F5000D6F8840050F00100C6F88400B8070DD5EB
:103F600019F00100C0B2002808D0022031680862B0
:103F7000D6F8840050F00400C6F8840078070DD508
:103F800019F00100C0B2002808D00420316808628E
:103F9000D6F8840050F00200C6F88400380710D527
:103FA0005FEA886004D419F00100C0B2002808D08C
:103FB000082031680862D6F8840050F00800C6F87E
:103FC000840038050CD55FEA481009D54FF400602D
:103FD00031680862D6F8840050F02000C6F88400EA
:103FE000D6F88400002848D0B80608D55FEA886073
:103FF00005D5B06E002802D03000B16E8847D6F8E3
:104000008400050030688068400602D415F0280F4F
:104010002DD0300000F09FFC30688068400622D52B
:104020003068083050E8000F30F040000100306880
:1040300010F1080242E800100028F1D1706F00284A
:104040000DD0DFF8FC04716F8863706F02F082F9A5
:10405000002812D0706F716F896B88470DE03000B7
:1040600002F076FA09E0300002F072FA05E0300062
:1040700002F06EFA0020C6F88400E2E0306E0128FB
:1040800040F0BD80F80640F1BA805FEAC86040F1B8
:10409000B6801020316808623068806840066DD5AF
:1040A000706F0068D0F804A0504680B2002852D04B
:1040B0005046B6F8581080B288424CD2A6F85AA0A2
:1040C000706F00680068800639D4306850E8000FCF
:1040D00030F480700100326842E800100028F4D10A
:1040E0003068083050E8000F400840000100306898
:1040F00010F1080242E800100028F1D130680830C1
:1041000050E8000F30F040000100306810F1080264
:1041100042E800100028F1D12020C6F880000020DD
:104120003066306850E8000F30F01000010032684F
:1041300042E800100028F4D1706F02F0E1F802208C
:104140007066B6F85810B6F85A00091A89B23000ED
:1041500002F0DFF911E05046B6F8581080B28842FC
:104160000BD1706F00680068800606D5022070666B
:10417000B6F85810300002F0CCF962E0B6F85800FA
:10418000B6F85AA0B0EB0A0AB6F85A00002835D0A3
:10419000504680B2002831D0306850E8000F30F42B
:1041A00090700100326842E800100028F4D13068B5
:1041B000083050E8000F400840000100306810F15E
:1041C000080242E800100028F1D12020C6F8800043
:1041D000002030660020B066306850E8000F30F0F4
:1041E00010000100326842E800100028F4D10220DB
:1041F0007066514689B2300002F08BF921E0F80276
:104200000AD55FEA492007D55FF48010316808625B
:10421000300002F02FFA14E0380609D55FEA086092
:1042200006D5F06E002802D03000F16E884708E015
:10423000780606D55FEA486003D5300000F055FCEB
:10424000FFE7BDE8F0870000008000402DE9F0475F
:1042500004000026DFF8A81920688842FFD0A26871
:104260002069024360690243E069024320680368F1
:10427000DFF8900903401343206803602068436817
:1042800033F44053E068034320684360D4F8188057
:104290002068884202D0206A50EA080820688068B6
:1042A00030F4306058EA0000226890602068DFF83F
:1042B000482A904216D1DFF8440A006810F0030043
:1042C000002805D0022805D006D3032806D007E031
:1042D000012760E002275EE004275CE008275AE03F
:1042E000102758E02068DFF8182A904217D1DFF82D
:1042F0000C0A006810F00C00002806D0042808D032
:10430000082804D00C2806D007E0002743E0022745
:1043100041E004273FE008273DE010273BE020680C
:10432000DFF8E029904217D1DFF8D009006810F0DB
:104330003000002806D0102808D0202804D03028CB
:1043400006D007E0002726E0022724E0042722E029
:10435000082720E010271EE0206888421AD1DFF8E5
:104360009C09006810F44060002809D0B0F5806F07
:104370000AD0B0F5006F05D0B0F5406F06D007E069
:10438000002708E0022706E0042704E0082702E0EF
:10439000102700E010272068884246D13800C0B2BC
:1043A000002806D0022808D0042809D008280BD0FD
:1043B0000DE002F0CFFD81460DE0DFF84C990AE0F8
:1043C00002F05BFD814606E04FF4004903E05FF038
:1043D000000901200600B9F1000F00F0A580616816
:1043E00003204143894505D361684FF48050414320
:1043F000494502D20120060096E04FF480726068C1
:1044000040080021E2FB09016268002300F07AFF06
:104410000500B5F5407F05D3B5F5801F02D22068B1
:10442000C56081E0012006007EE0E069B0F5004F44
:1044300041D13800C0B2002808D001280AD0022893
:104440000CD004280DD008280FD011E002F082FD16
:10445000814611E002F08BFD81460DE0DFF8A8985F
:104460000AE002F00AFD814606E04FF4004903E04D
:104470005FF0000901200600B9F1000F54D0606818
:10448000400810EB49006168B0FBF1F00500102D09
:104490000ED3B5F5803F0BD24FF6F0712940C5F32E
:1044A000420001438A46504680B22168C8603BE022
:1044B0000120060038E03800C0B2002808D00128EA
:1044C0000AD002280CD004280DD008280FD011E003
:1044D00002F040FD814611E002F049FD81460DE009
:1044E000DFF824980AE002F0C8FC814606E04FF4A9
:1044F000004903E05FF0000901200600B9F1000F58
:1045000012D0606819EB50006168B0FBF1F0050053
:10451000102D07D3B5F5803F04D2280080B2216862
:10452000C86001E0012006000020A0660020E066CF
:104530003000C0B2BDE8F087000000002001000498
:10454000D14A000890F82410090707D501684A6885
:1045500032F40042416B0A4301684A6090F824102B
:10456000C90707D501684A6832F40032816A0A43F4
:1045700001684A6090F82410890707D501684A68E5
:1045800032F48032C16A0A4301684A6090F824100C
:10459000490707D501684A6832F48022016B0A4353
:1045A00001684A6090F82410C90607D501688A6836
:1045B00032F48052816B0A4301688A6090F82410BB
:1045C000890607D501688A6832F40052C16B0A4334
:1045D00001688A6090F82410490613D501684A687A
:1045E00032F48012016C0A4301684A60016CB1F533
:1045F000801F07D101684A6832F4C002416C0A4347
:1046000001684A6090F82410090607D501684A68D5
:1046100032F40022816C0A4301684A60704738B561
:1046200004000020C4F88400FDF776FC0500206833
:10463000006800071DD57FF07E4000902B0000220F
:104640005FF40011200000F053F8002811D020681A
:1046500050E8000F30F080000100226842E80010AE
:104660000028F4D12020E067002084F8780003209F
:104670003DE02068006840072CD57FF07E40009028
:104680002B0000225FF48001200000F031F80028A8
:1046900020D0206850E8000F30F4907001002268AC
:1046A00042E800100028F4D12068083050E8000FDC
:1046B000400840000100206810F1080242E80010A4
:1046C0000028F1D12020C4F88000002084F8780070
:1046D00003200CE02020E0672020C4F880000020A8
:1046E000206600206066002084F87800002032BD3B
:1046F0002DE9F04105000E0090461F00069C286839
:10470000C0693040B04201D1012000E000204146A4
:10471000C9B2884238D114F1010FF0D0FDF7FCFB8B
:10472000C01B844201D3002C01D103202DE0286856
:1047300000684007E3D5802EE1D0402EDFD0286806
:10474000C06900070DD5082029680862280000F01C
:1047500002F90820C5F88400002085F878000120BF
:1047600013E02868C0690005C9D54FF400602968C6
:104770000862280000F0EFF82020C5F8840000202F
:1047800085F87800032000E00020BDE8F08130B417
:1047900003005965A3F85820A3F85A200020986612
:1047A0009868B0F5805F0BD11869002804D140F2F9
:1047B000FF10A3F85C0023E0FF20A3F85C001FE0DB
:1047C000986800280AD11869002803D1FF20A3F8AF
:1047D0005C0015E07F20A3F85C0011E09868B0F160
:1047E000805F0AD11869002803D17F20A3F85C00FC
:1047F00006E03F20A3F85C0002E00020A3F85C0084
:104800000020C3F884002220C3F880001868083014
:1048100050E8000F50F001000400186810F108057E
:1048200045E800400028F1D19868B0F5805F06D1D6
:104830001869002803D10FF2D130986602E00FF218
:10484000D5209866186900280BD0186850E8000F2A
:1048500050F4907004001D6845E800400028F4D131
:104860000AE0186850E8000F50F0200004001D68AE
:1048700045E800400028F4D1002030BC704770B5F6
:1048800004000D0016006565A4F858600020C4F807
:1048900084002220C4F88000606F002821D00FF22D
:1048A0001510616FC8620FF2B110616F08630FF2EB
:1048B000D110616F48630020616F886333009BB241
:1048C000626D206810F12401606F01F0CDFC0028BA
:1048D00007D01020C4F884002020C4F880000120F4
:1048E0002AE0206900280AD0206850E8000F50F420
:1048F00080700100226842E800100028F4D120688E
:10490000083050E8000F50F001000100206810F15D
:10491000080242E800100028F1D12068083050E871
:10492000000F50F040000100206810F1080242E83A
:1049300000100028F1D1002070BD016851E8001F6F
:1049400031F0C0010A00036843E800210029F4D1D6
:104950002021C1677047016851E8001F31F4907150
:104960000A00036843E800210029F4D101680831F6
:1049700051E8001F490849000A00016811F10803C5
:1049800043E800210029F1D1016E01290AD1016813
:1049900051E8001F31F010010A00036843E80021CC
:1049A0000029F4D12021C0F88010002101660021E7
:1049B0008166704738B50400A56A206800688006E3
:1049C0003AD40020A5F85A00286850E8000F30F4C7
:1049D000807001002A6842E800100028F4D128689D
:1049E000083050E8000F400840000100286810F12E
:1049F000080242E800100028F1D12868083050E889
:104A0000000F30F040000100286810F1080242E871
:104A100000100028F1D12020C5F88000286E012860
:104A20000AD1286850E8000F30F0100001002A6811
:104A300042E800100028F4D100206866286E0128A2
:104A400005D1B5F85810280001F063FD02E02800F8
:104A500001F044FD31BD000038B50400A56A012015
:104A60006866286E012807D1B5F85810490889B240
:104A7000280001F04EFD02E0280002F0FBFA31BDF3
:104A8000F8B50400A56AEE6FD5F8807028688068D4
:104A9000000607D5212E05D10020A5F852002800D8
:104AA000FFF74BFF28688068400607D5222F05D105
:104AB0000020A5F85A002800FFF74DFFD5F8840024
:104AC00050F01000C5F88400280001F041FDF1BD50
:104AD00038B50400A56A0020A5F85A000020A5F802
:104AE0005200280001F034FD31BD10B504002068EB
:104AF00050E8000F30F040000100226842E800104A
:104B00000028F4D12020E0670020E066200002F0B9
:104B1000B2FA10BD70B50500B5F85C60D5F880003C
:104B2000222866D12868808C040016EA0400696D8A
:104B30000870686D401C6865B5F85A00401EA5F8FD
:104B40005A00B5F85A00002859D1286850E8000FDB
:104B500030F4907001002A6842E800100028F4D177
:104B60002868083050E8000F40084000010028681D
:104B700010F1080242E800100028F1D12020C5F809
:104B800080000020A8660020686628681C498842CA
:104B90000ED02868406800020AD5286850E8000F47
:104BA00030F0806001002A6842E800100028F4D14B
:104BB000286E012819D100202866286850E8000FC7
:104BC00030F0100001002A6842E800100028F4D1FB
:104BD0002868C069C00602D5102029680862B5F8A7
:104BE0005810280001F095FC09E0280001F076FC3F
:104BF00005E02868008B50F008002968088370BD24
:104C000000800040F369FFEFF8B50500B5F85C706F
:104C1000D5F88000222867D12868808C0400686D50
:104C2000060017EA04003080686D801C6865B5F8DE
:104C30005A00401EA5F85A00B5F85A00002859D16C
:104C4000286850E8000F30F4907001002A6842E8AC
:104C500000100028F4D12868083050E8000F400800
:104C600040000100286810F1080242E80010002806
:104C7000F1D12020C5F880000020A86600206866D9
:104C80002868224988420ED02868406800020AD568
:104C9000286850E8000F30F0806001002A6842E880
:104CA00000100028F4D1286E012819D100202866B0
:104CB000286850E8000F30F0100001002A6842E830
:104CC00000100028F4D12868C069C00602D5102061
:104CD00029680862B5F85810280001F01AFC09E0AC
:104CE000280001F0FBFB05E02868008B50F008006D
:104CF00029680883F1BD0000003801408810024097
:104D000000440040004800400024F40000800040BF
:104D100062B38B0708D0521E11F8013B00F8013B2B
:104D200000F024808B07F6D1830740F0208000BF7D
:104D3000103A07D330B4B1E83810103AA0E8381070
:104D4000F9D230BC530724BFB1E80810A0E808101E
:104D500044BF51F8043B40F8043BD20724BF31F86C
:104D6000022B20F8022B44BF0B7803707047121FF0
:104D700017D35B0009D151F8043B20F8023B1B0C10
:104D8000121F20F8023BF6D20BE051F8043B00F86A
:104D9000013B1B0A20F8023B1B0C121F00F8013BD1
:104DA000F3D238BF121D521E24BF11F8013B00F888
:104DB000013BF8D87047000080B501221749184818
:104DC000FFF70BF800220121262002F0E4F926204B
:104DD00002F0F6F901BD704738B504000D480F49DF
:104DE0000A78036885885A558288521C8280828896
:104DF00040F2FF139A4201D3002282800122084828
:104E0000FEF7EBFF01200449087001210548FDF77A
:104E1000A6F931BD4C0C0020AC270020AB270020A8
:104E2000B81F00203407002018B589B024220021C3
:104E3000684602F0EBF9264C264820602000FCF77B
:104E400039FF002801D002F050FA00200090002025
:104E50000190002002900020039000200490002286
:104E600069462000FCF78BFF002801D002F03DFAD4
:104E70000AB010BD10B586B004001422002101A8AC
:104E800002F0C4F92068134988421ED11248016813
:104E900051F000510160006810F00050009000983F
:104EA0000E48016851F001010160006810F0010036
:104EB00000900098102001900320029000200390A1
:104EC00001A95FF0904000F07FFC06B010BD00002B
:104ED000F826002000740040581002404C10024098
:104EE00070B50400FDF718F80500260016F1010F53
:104EF00002D0044800783618FDF70EF8401BB04287
:104F0000FAD370BD9D0C002000F10103810704D08D
:104F100010F8011B820781B1FAD10268A2F10131B8
:104F2000914311F0803104BF50F8042FF6E709BA1D
:104F3000B1FA81F100EBD100401CC01A70470000AB
:104F4000C11768B14840401AB0FA80F29040D21CB4
:104F5000C907C2F5846241EA025202EBD021400542
:104F60007047000041EC100B01BD80B553EC112BD4
:104F700051EC100B02F0BCF9F4E70000F0B540F280
:104F8000FF7581EA030C0CF0004C15EA11541DBFAB
:104F900015EA1357AC42AF42E5E0BC41C1F313013F
:104FA000C3F31303801A994143F4801304D2641E9F
:104FB0004000494180185941C90241EA5051B1FBB2
:104FC000F3F603FB1611A2FB0675D7EBC020A9412F
:104FD00002D2761E80185941C90241EA5051B1FBF4
:104FE000F3FE03FB1E11A2FB0E75D7EBC020A941F7
:104FF00003D2AEF1010E80185941890241EA905165
:10500000760546EA8E2EB1FBF3F603FB1611A2FBE2
:105010000675D7EB8020A94102D2761E801859412F
:10502000C90241EA50514EEA060EB1FBF3F603FB0A
:105030001611A2FB0675D7EBC020A94102D2761E3D
:1050400080185941C90241EA5051B1FBF3F703FB03
:105050001711A2FB0735D3EBC020A94167F1000768
:105060000CBF004247F0010766F3D5274FEA1E3117
:10507000B80814F5806412DDBD0775F1004250EBED
:105080000E5051EB045111F5801F5CBF41EA0C0139
:10509000F0BD4CF07F6141F0E0410020F0BDBD0764
:1050A0006D0840EA0E5041F48011D4F10104B4F1CE
:1050B00020060ADAC4F120060200E04001FA06F3F5
:1050C000E1401843B24015430EE0342C13DCC6F126
:1050D000200445EA40056D0820FA06F2154321FA3E
:1050E00006F0A1400D43002175F1004250F100008F
:1050F00051EB0C01F0BD00205FEA0C01F0BDCFB90F
:1051000092185B41B3FA83F704BFB2FA82F6BF1973
:105110000B3FB7F120062FBF02FA06F3BB40C7F1E1
:10512000200622FA06F638BF3343BA401CB1E41910
:10513000641E33E77F4231F00041B1FA81F404BFCD
:10514000B0FA80F6A4190B3CB4F120062FBF00FA88
:1051500006F1A140C4F1200620FA06F638BF31431B
:10516000A0403C1B1AE7AC421ABF05EA1357AF42F6
:1051700012E050EA41061CBF52EA4306BFE750EA7C
:105180004107304661461CBF41EA0551F0BD52EA75
:10519000430C08BFC143F0BD00204FF4001616EBCE
:1051A000410F98BF16EB430F08BF16EB410F24BF0A
:1051B000C14305E016EB430F0CBF61464CEA0551B5
:1051C000F0BD0000014648B1B0FA80F18840C91C2A
:1051D000C1F58461090501EBD0214005704700004D
:1051E0000CB430B583B00A4606A9029104460025E6
:1051F0000194009502AB01A9084878441E3002F0E2
:10520000EDFB019A157000284EBF04460198041B5F
:10521000204603B030BC5DF80CFB00BF8BD1FFFF14
:1052200070B44FF0004591EA030F7DF5C9A86B40BB
:10523000841A71EB030603D2001BB14112197341AA
:105240004FF4001C1CEB410F34BF7CEB430442E0E5
:105250000C0DA4EB1356352E4FDC45EAC323DB0AB5
:1052600045EAC121C912B6F120050DDD63FA05F644
:10527000EB4086EA0305124218BF45F00105C0184D
:1052800051F100010CD213E062FA06F5F2405540EC
:10529000F3415A40B340F3405A408018594107D374
:1052A00049085FEA30005FEA350528BF45F001058F
:1052B00001F58011420875F1004250F1000041EB08
:1052C00004514E0016F5001F70BC38BF7047002017
:1052D000090D090570471CEB410F10D252EA430635
:1052E0000BD0BCEB410F05D80C0DAB43661E342E22
:1052F000B6DD02E0AB438018594170BC704770BC0A
:1053000070470000BBBBE1B1B2F5803F80F07E800A
:10531000022A1ED98C46B1FBF2F102FB11C31B0419
:1053200043EA1043B3FBF2FC02FB1C3380B240EAB9
:105330000343B3FBF2F002FB103240EA0C400023BF
:105340007047022A05D98446B0FBF2F002FB10C276
:1053500070474AB105D100F0010249085FEA300008
:10536000704700220023704703F01CBB0B000200B3
:10537000002100207047904271EB030CF6D3B3F587
:10538000803F2FD2F0B5B3FA83F7B1FA81F4A7F1D9
:105390000F0E3D1B5340CEF1200602FA0EF2F341F0
:1053A0005340B5F10F0746D80F3C2C444140C4F19F
:1053B0002006A040F1414140B1FBF3F603FB16117A
:1053C000A2FB0645001BA94102D2761E8018594156
:1053D00080EA010221FA0EF362FA0EF200215A402D
:1053E0003046F0BD30B4B1FBF3FC03FB1C11A2FB53
:1053F0000C45001BA94103D2ACF1010C80185941A6
:1054000030BC02460B46604600217047B2F1807FF7
:1054100065D3F0B5B2FA82F7B1FA81F4C7F10F069D
:105420003D1B22FA06F307F1110EF24120355A40D6
:10543000B5F10F07B8D94140C4F12006A040F141B1
:105440004140B1FBF3FC03FB1C11A2FB0C45001B0C
:10545000A94103D2BCF1010C801859410F2F12D37E
:105460000F3FC90341EA5041B1FBF3F603FB1611AC
:10547000A2FB0645D4EBC030A94102D2761E8018AB
:10548000594146EACC3C07B34140C7F12006B84039
:10549000F1414140B1FBF3F603FB1611A2FB0645B7
:1054A000001BA94102D2761E8018594180EA0102F0
:1054B00021FA0EF3C7F1200462FA0EF20CFA07F09B
:1054C0005A402CFA04F13043F0BD80EA010221FA7F
:1054D0000EF3002162FA0EF260465A40F0BD8C468F
:1054E000B1FBF2F102FB11C31B0243EA1063B3FBF1
:1054F000F2FC02FB1C331B024CEA002043EA10635F
:10550000B3FBF2FC02FB1C331B024CEA002043EA13
:105510001063B3FBF2FC02FB1C331B024CEA0020BD
:1055200043EA1063B3FBF2FC02FB1C324CEA00209E
:1055300000237047C1F30A5340F2FE329B1A14DD78
:10554000D3F120034FEAE17208DDC90241EA50516C
:1055500041F00040D84080185040704703F2E130DD
:1055600010B1D24382F00040704700207047000025
:105570002DE9F84F82468B4614001D000026DFF807
:1055800084713878012801D1022047E00120387069
:105590004CF25038404600F05BF881464846C0B2B5
:1055A000002837D100207860DFF85C0101684905E8
:1055B00006D5016831F4806101600220387701E08E
:1055C00000203877BAF1000F07D122002B0058468F
:1055D00000F071F8012006000FE0BAF1010F02D0CF
:1055E000BAF1020F09D12100584600F071F8BAF162
:1055F000020F02D15FF480200600404600F028F838
:105600008146002E04D0DFF804010168B143016037
:1056100000F09FF8002038704846C0B2BDE8F28F15
:1056200000203A490A68002A09D53C4A3C4B1360DD
:105630003C4B13600968002901D501210800C0B264
:1056400070473248016851F0004101600020704706
:1056500070B50400FCF760FC05002D4A1068C0031B
:1056600009D514F1010FF8D0FCF756FC401BA042FD
:10567000F3D303201EE0116826480140002913D00F
:10568000204843680B43436011F0404F05D0224B44
:105690001E6811F0404006431E60880002D021F0D1
:1056A00040401060012005E01068C00701D50120CE
:1056B0001060002070BD10B414490C6854F001044F
:1056C0000C600260BFF36F8F011D0B6010BC704750
:1056D00070B4402304000D000C4A166856F480266E
:1056E0001660EFF3108272B62E682660241D2D1D01
:1056F0005B1E1E00F6B2002EF6D182F3108870BC3D
:10570000704700009C04002000200240142002404A
:1057100010200240FAC30200182002400820024074
:1057200023016745AB89EFCD10B4DFF898201368EB
:1057300033F47E73C40014F4FF64234313601368CE
:1057400053F002031360136853F48033136010BCEA
:105750007047DFF86800017F0A00D2B2012A03D047
:105760000A00D2B2032A11D1DFF85420136833F4AF
:1057700000731360136853F400631360136833F409
:1057800000631360136853F4007313600A00D2B20D
:10579000022A03D00A00D2B2032A0CD1084A1368A5
:1057A00053F480531360136833F480531360136809
:1057B00053F4806313600022027770479C0400203A
:1057C0000020024014200240F8B4030000250868BD
:1057D000E840002800F0D78001260F6816FA05F08F
:1057E00007403A00002A00F0CC80087910F003004E
:1057F000012804D0087910F0030002281DD19F6809
:105800005FF0030C2800C0B240001CFA00FC37EA2D
:105810000C07D1F80CC02800C0B240001CFA00FCF4
:105820005CEA07079F605868AE40B0434E68C6F315
:105830000016AE40304304005C60087910F00300AD
:1058400003280ED0DE6803272800C0B2400087403E
:10585000BE438F682800C0B2400087403E433400FA
:10586000DC60087910F00300022818D12800C00875
:1058700003EB8000066A0F2715F00700C0B2800016
:105880008740BE430F6915F00700C0B28000874013
:105890003E4334002800C00803EB800004621E6809
:1058A00003272800C0B240008740BE430F7917F09D
:1058B00003072800C0B2400087403E4334001C600C
:1058C000486810F4403F5CD09548066856F00106E1
:1058D0000660006810F0010000900098914F2800C9
:1058E000800857F820605FF00F0C15F00300C0B27D
:1058F00080001CFA00FC36EA0C06B3F1904F01D18F
:10590000002414E08848834201D101240FE0874835
:10591000834201D102240AE08548834201D1032455
:1059200005E08448834201D1042400E0072415F0F7
:105930000300C0B28000844026432800800847F856
:1059400020607D4C206890434F68FF0200D51043D3
:1059500020607A4E346894434F68BF0200D51443E8
:105960003460774E306890434F68BF0300D51043D2
:105970003060744E346894434F68FF0300D514437D
:1059800034606D1C23E7F1BC70472DE9F041030042
:1059900000250800E840002800F0A880012616FA3B
:1059A00005F008400200002A00F09E80DFF874C174
:1059B000280080085CF820000F2715F0030E5FFA1E
:1059C0008EFE5FEA8E0E17FA0EFE1EEA000004003D
:1059D000B3F1904F02D15FF0000E19E052488342BC
:1059E00002D15FF0010E13E05048834202D15FF014
:1059F000020E0DE04E48834202D15FF0030E07E035
:105A00004C48834202D15FF0040E01E05FF0070EC4
:105A100015F00300C0B280001EFA00FE74452CD1C0
:105A20004848D0F800E03EEA020EC0F800E04448E2
:105A3000D0F800E03EEA020EC0F800E03F48D0F89F
:105A400000E03EEA020EC0F800E03B48D0F800E07B
:105A50003EEA020EC0F800E015F00300C0B280007C
:105A600017FA00F00400280080085CF82000A0432A
:105A7000AE465FEA9E0E4CF82E005FF0030C1868ED
:105A8000AE465FFA8EFE5FEA4E0E1CFA0EFE5EEA2E
:105A9000000018602800C00803EB800E2800C00832
:105AA00003EB8000D0F8208015F00700C0B2800022
:105AB000874038EA0707CEF8207098682F00FFB2B9
:105AC0007F001CFA07F7B84398605868AE4030EA88
:105AD00006065E60DE682800C0B240001CFA00FCCA
