:020000040800F2
:100000000829002055ED000855E5000857E50008CF
:1000100059E500085BE500085DE500080000000008
:100020000000000000000000000000005FE5000884
:1000300061E500080000000063E5000865E50008D0
:1000400029F000082DF0000831F0000835F0000814
:1000500039F000083DF0000841F0000845F00008C4
:1000600049F000084DF0000851F0000855F0000874
:1000700059F0000875E500085DF0000861F000081F
:100080007FE5000865F0000869F000086DF00008E1
:1000900071F0000875F0000879F000087DF00008A4
:1000A00081F0000885F0000889F000088DF0000854
:1000B00089E50008000000000000000091F0000841
:1000C00095F0000899F000089DF00008A1F00008E4
:1000D000A5F0000893E500089DE50008A7E50008E5
:1000E000A9F00008B1E500080000000000000000D1
:1000F0000000000000000000000000000000000000
:1001000000000000ADF0000800000000B1F00008A1
:100110000000000000000000B5F00008B9F0000881
:10012000BDF00008C1F00008C5F00008C9F00008E3
:10013000CDF00008000000000000000000000000FA
:10014000D1F00008D5F00008D9F00008DDF0000873
:10015000E1F00008BBE50008E5F00008E9F0000860
:10016000EDF00008F1F00008F5F0000800000000D4
:10017000F9F00008FDF0000801F10008000000009F
:1001800005F1000809F100080DF1000810B50400A0
:100190000021DFF8E40A01F017F9012010BDF8B5DD
:1001A000040001F02DFADFF8B8592968401ADFF889
:1001B000B419086001F024FA28600025DFF8A86966
:1001C00030680078522813D1306800790D280FD19B
:1001D000306841786422306883780A20434302FB08
:1001E00001313068C0780918DFF8800941180D0026
:1001F000DFF8207A280000F003F987ED000A97ED78
:10020000000A00F06DF987ED010A97ED000AB5EEDE
:10021000400AF1EE10FA04D10321DFF80C0C01F0D2
:1002200004FA300001F078FA0321DFF8FC0B01F04A
:10023000FCF90120F2BD000070B52DED048B040027
:1002400000219FEDA48ADFEDA38ADFF8CC5928783E
:1002500000282BD1DFF8BC0990ED010AF3EE040A67
:10026000B4EE600AF1EE10FA01D500262BE090ED15
:10027000010ADFED990A30EE200ADFED980A80EEE0
:10028000200AAA886888121A00EE902AF8EEE00A7E
:10029000688801EE100AB8EE411A00EE201AB0EE9E
:1002A000418ABCEEC80A10EE106A0CE0E8886A8841
:1002B000904201D26E8806E0A888EA88904201D276
:1002C000AE8800E0EE88330000220021DFF8A809A4
:1002D00001F0B1F86888301A00EE100AB8EE400A52
:1002E000A9886888091A00EE901AF8EEE00A80EEF4
:1002F000209AB3EE000AF1EE000A49EE000ADFF898
:100300001409C0ED020A2100C9B2DFF81C0B01F08C
:100310008CF90120BDEC048B70BD10B50400DFF832
:10032000F408002141602100C9B2DFF8FC0A01F0A5
:100330007CF9012010BD10B504002100C9B2DFF81E
:10034000E80A01F072F9012010BD10B50400DFF8D1
:10035000D40901F0E0FA2100C9B2DFF8CC0A01F0BB
:1003600064F9012010BD2DE9F04100242500EDB213
:100370000A2D43DA00252E00F6B2092E3CDA2E00B3
:10038000F6B201EB860676682F00FFB251F82770AF
:10039000BE422FDA00262F00FFB251F82770AC467C
:1003A0005FFA8CFC01EB8C0CDCF804C0AE465FFA03
:1003B0008EFE41F82EC0AC465FFA8CFC01EB8C0C33
:1003C000CCF80470AC465FFA8CFC50F82CC0AE46FA
:1003D0005FFA8EFE00EB8E0EDEF804E0A8465FFAB0
:1003E00088F840F828E0AE465FFA8EFE00EB8E0EED
:1003F000CEF804C06D1CBEE7641CB7E7BDE8F08111
:1004000038B52DED028B04009FED328ADFF87819A4
:10041000087800282AD10120087000210800C0B205
:100420000A2815DA0800C0B2DFF83C2C0B00DBB25A
:1004300042F82300DFF854290800C0B252F8200027
:10044000002803D10800C0B242F82040491CE5E76B
:10045000DFF83859092300222900DFF80C0CFFF7D8
:1004600082FF95ED050AB8EEC00A30E000200100D9
:10047000C9B20A291EDADFF8F01B0200D2B251F825
:100480002220092A0BD100220300DBB241F82320ED
:10049000DFF8F8180200D2B241F8224008E002006A
:1004A000D2B251F82220521C0300DBB241F82320C3
:1004B000401CDCE7DFF8D458092300222900DFF8CC
:1004C000A80BFFF750FF95ED050AB8EEC00ABDEC8A
:1004D000028B31BD00000000000048C200800944CA
:1004E000F0EE400A9FED990ADFED981A9FED972AEA
:1004F000DFF8200790ED041AD0ED062AB4EE621A58
:10050000F1EE10FA25D090ED051AD0ED072AB4EEE1
:10051000621AF1EE10FA1CD090ED071AD0ED052A00
:1005200031EE621AD0ED062A90ED043A72EEC32A3B
:1005300081EE221AF0EE411A90ED041AD0ED052A50
:1005400041EEC12AB0EE622AB0EE421A01EEA01AC4
:1005500001E0B0EE601A90ED030A31EE000A9FED63
:100560007C1AB4EE410AF1EE10FA01D5B0EE410A60
:100570009FED781AB4EE410AF1EE10FA03DB9FED1D
:10058000CE1AB0EE410A70472DE9F84F2DED028BDF
:1005900092B00400B0EE408A3221002204AD28005F
:1005A00001F0C0F95FF0000B0020039000200290E2
:1005B000002001900020009000252000C0B20028FB
:1005C00003D002280DD005D312E0DFF8480680EDF5
:1005D000038A0DE0DFF83C060168016180ED058AC1
:1005E00006E0DFF830060168816180ED078AFFE7E9
:1005F000DFF820A69AED030A01F0C0FB06009AED91
:10060000040A01F0BBFB07009AED050A01F0B6FBF6
:1006100080469AED060A01F0B1FB81469AED070A81
:1006200001F0ACFB824604A83100090E5A46D2B252
:1006300081541BF1010B3100090C5A46D2B281548E
:100640001BF1010B3100090A5A46D2B281541BF149
:10065000010B5946C9B246541BF1010B3900090E72
:100660005A46D2B281541BF1010B3900090C5A468B
:10067000D2B281541BF1010B3900090A5A46D2B299
:1006800081541BF1010B5946C9B247541BF1010BB0
:100690004146090E5A46D2B281541BF1010B414624
:1006A000090C5A46D2B281541BF1010B4146090A8A
:1006B0005A46D2B281541BF1010B5946C9B200F817
:1006C00001801BF1010B4946090E5A46D2B28154F2
:1006D0001BF1010B4946090C5A46D2B281541BF159
:1006E000010B4946090A5A46D2B281541BF1010B4B
:1006F0005946C9B200F801901BF1010B5146090E91
:100700005A46D2B281541BF1010B5146090C5A468C
:10071000D2B281541BF1010B5146090A5A46D2B29A
:1007200081541BF1010B5946C9B200F801A01BF11D
:10073000010B5A46D2B292B204A9DFF8D00901F0F7
:10074000A5FB12B0BDEC028BBDE8F18F00000000EC
:1007500000004842010016442DE9F843002400251A
:10076000002600275FF00008DFF8A0090078C0B27B
:10077000FF2800F08F80DFF898090178C9B20906D8
:10078000DFF890090078C0B251EA0041DFF888092B
:100790000078C0B251EA0021DFF880090078C0B2C9
:1007A00001430C00DFF878090178C9B20906DFF8C7
:1007B000D8090078C0B251EA0041DFF8D0090078CA
:1007C000C0B251EA0021DFF8C8090078C0B2014385
:1007D0000D00DFF8C0090178C9B20906DFF8B809D1
:1007E0000078C0B251EA0041DFF8B0090078C0B229
:1007F00051EA0021DFF8A8090078C0B201430E00D9
:10080000DFF8A0090178C9B20906DFF89C09007871
:10081000C0B251EA0041DFF894090078C0B251EA51
:100820000021DFF88C090078C0B201430F00DFF827
:1008300084090178C9B20906DFF87C090078C0B2E2
:1008400051EA0041DFF874090078C0B251EA002192
:10085000DFF86C090078C0B201438846DFF8B49332
:1008600019F10C01200001F0B1F919F11001280073
:1008700001F0ACF919F11401300001F0A7F919F1F8
:100880001801380001F0A2F919F11C01404601F0ED
:100890009DF90FE0DFF87C030021C1609FED760A2F
:1008A00080ED040A80ED050A9FED030A80ED060A3B
:1008B00080ED070ABDE8F1830000164470B50024FE
:1008C0000025DFF8000A0078C0B2FF283DD0DFF82D
:1008D0006869DFF8F40900783070DFF8F009017812
:1008E000C9B20906DFF8E8090078C0B251EA004150
:1008F000DFF8E0090078C0B251EA0021DFF8D8093A
:100900000078C0B201430C00DFF8D0090178C9B209
:100910000906DFF8CC090078C0B251EA0041DFF8DF
:10092000C4090078C0B251EA0021DFF8BC090078A0
:10093000C0B201430D0016F10801200001F046F994
:10094000311D280001F042F908E0DFF8EC08002131
:10095000017049498160DFF8C813416070BD78B506
:100960008DB004000D00322100226E46300000F0F0
:10097000D9FF00262000290080B289B2884223D204
:10098000A548448085806946428892B2120A3300A5
:10099000DBB2CA54761C42883300DBB2CA54761CE0
:1009A000828892B2120A3300DBB2CA54761C808865
:1009B0003200D2B28854761C3200D2B292B269466A
:1009C000DFF8280901F062FA0EB070BDDFF81C09EB
:1009D0000078C0B2FF2820D0DFF814194888DFF86B
:1009E00014291278D2B250EA022048804A88DFF8EF
:1009F00008090078C0B202434A808888DFF8FC28E2
:100A00001278D2B250EA022088808A88DFF8F00893
:100A10000078C0B202438A8006E0DFF8D4080021E3
:100A2000418040F6FF718180704778B591B0040035
:100A30000D003C21002202AE300000F073FF0020C8
:100A4000ADF8040003211A2001F04EFD0B200090A8
:100A50000023DFF8B02801A902A801F0A1F84FF4A3
:100A60007A73BDF8042002A9DFF89C0801F08DFF1D
:100A700012B070BD000000000000484270B52DEDBE
:100A8000028B92B004000D003C21002202AE300027
:100A900000F048FF0020ADF80400DFF8700601F018
:100AA000C5F95C480021C1609FED9C8A80ED048AF5
:100AB00080ED058ADFED9A8AC0ED068AC0ED078ACF
:100AC000DFF8000801F0B2F9DFF86C0700210170CF
:100AD000C0ED028A80ED018A0D2000900023DFF82E
:100AE0002C2801A902A801F05BF84FF47A73BDF835
:100AF000042002A9DFF8100801F047FF12B0BDEC96
:100B0000028B70BD38B590B004000D0003A8DFF86B
:100B10000018322202F03AFFDFF8F807D0E900238C
:100B2000CDE9012303A801900023DFF8EC07027848
:100B300002A903A800F0BFFF02200090002391A2A9
:100B400002A903A801F02CF84FF47A73BDF808202D
:100B50000199DFF8B40701F018FF11B030BD0000B3
:100B6000D4240020D0240020440A002030EBFFFFD2
:100B7000F8B504000D0000262068007830283EDB20
:100B8000206800783A283ADA002700200100C9B22C
:100B9000A28889B291420FD221680200D2B2895C48
:100BA000302905DB21680200D2B2895C3A2900DBDA
:100BB00002E07F1C401CE9E73900C9B2206801F05F
:100BC000A7F80600B6F5807F0FD2DFF84C07417812
:100BD0003000C0B201F088FC4FF47A730222AAA15F
:100BE000DFF8240701F0D1FE12E04FF47A730522FA
:100BF000DFF82817DFF8100701F0C7FE08E04FF410
:100C00007A730522DFF81417DFF8FC0601F0BDFE49
:100C1000F1BD0000CC230020A824002038B590B0FE
:100C200004000D0003A8DFF8F816322202F0AEFE31
:100C3000DFF8F006D0E90023CDE9012303A80190F5
:100C40000023DFF8D406427802A903A800F033FF9E
:100C50000220009000234BA202A903A800F0A0FFED
:100C60004FF47A73BDF808200199DFF89C0601F073
:100C70008CFE11B030BD000050240020F8B50400F7
:100C80000D0000262068007830283DDB20680078C1
:100C90003A2839DA002700200100C9B2A28889B2B7
:100CA00091420FD221680200D2B2895C302905DB63
:100CB00021680200D2B2895C3A2900DB02E07F1C85
:100CC000401CE9E73900C9B2206801F021F80600AC
:100CD0000C2E0FD23100C9B2DFF83C06007801F0CB
:100CE00003FC4FF47A73022267A1DFF81C0601F0BF
:100CF0004CFE12E04FF47A730522DFF82016DFF87D
:100D0000080601F042FE08E04FF47A730522DFF88E
:100D10000C16DFF8F40501F038FEF1BD0000484282
:100D2000000016446424002038B590B004000D0083
:100D300003A8DFF8F415322202F028FEDFF8EC05F4
:100D4000D0E90023CDE9012303A801900023DFF8B7
:100D5000A005027802A903A800F0ADFE02200090D1
:100D6000002308A202A903A800F01AFF4FF47A7327
:100D7000BDF808200199DFF8900501F006FE11B0DA
:100D800030BD00000D0A0000FE240020802300205A
:100D9000F8B504000D00002620680078302839DB03
:100DA000206800783A2835DA002700200100C9B20F
:100DB000A28889B291420FD221680200D2B2895C26
:100DC000302905DB21680200D2B2895C3A2900DBB8
:100DD00002E07F1C401CE9E73900C9B2206800F03E
:100DE00097FF0600022E0BD2DFF8040506704FF4C1
:100DF0007A73022224A1DFF8100501F0C6FD12E08B
:100E00004FF47A730522DFF81415DFF8FC0401F0C3
:100E1000BCFD08E04FF47A730522DFF80015DFF817
:100E2000E80401F0B2FDF1BD3C05002038B590B0FA
:100E300004000D0003A8DFF8F814322202F0A6FD2A
:100E4000DFF8F004D0E90023CDE9012303A80190E5
:100E50000023DFF89C04C28802A903A800F02BFE3F
:100E600002200090002381A202A903A800F098FEAE
:100E70004FF47A73BDF808200199DFF88C0401F073
:100E800084FD11B030BD00004F4B0000F8B50400E8
:100E90000D0000262068007830283ADB20680078B2
:100EA0003A2836DA002700200100C9B2A28889B2A8
:100EB00091420FD221680200D2B2895C302905DB51
:100EC00021680200D2B2895C3A2900DB02E07F1C73
:100ED000401CE9E73900C9B2206800F019FF06009C
:100EE000B6F5805F0BD2DFF80804C6804FF47A7342
:100EF000022285A1DFF8100401F047FD12E04FF453
:100F00007A730522DFF81414DFF8FC0301F03DFDCD
:100F100008E04FF47A730522DFF80014DFF8E803E5
:100F200001F033FDF1BD38B590B004000D0003A809
:100F3000DFF80414322202F029FDDFF80004D0E9C2
:100F40000023CDE9012303A801900023DFF8A003CB
:100F5000428802A903A800F0AEFD02200090002301
:100F600042A202A903A800F01BFE4FF47A73BDF859
:100F700008200199DFF8900301F007FD11B030BDA2
:100F8000F8B504000D0000262068007830283ADB10
:100F9000206800783A2836DA002700200100C9B21C
:100FA000A28889B291420FD221680200D2B2895C34
:100FB000302905DB21680200D2B2895C3A2900DBC6
:100FC00002E07F1C401CE9E73900C9B2206800F04C
:100FD0009FFE0600B6F5805F0DD2C54881883000BF
:100FE00080B2FFF7BCFC4FF47A73022246A1C648D8
:100FF00001F0CBFC0EE04FF47A730522C749C248DA
:1010000001F0C3FC06E04FF47A730522C349BE48E1
:1010100001F0BBFCF1BD38B590B004000D0003A891
:10102000C749322202F0B2FCC648D0E90023CDE91C
:10103000012303A801900023AD48828802A903A8D8
:1010400000F039FD02200090002308A202A903A8A5
:1010500000F0A6FD4FF47A73BDF808200199AA4864
:1010600001F093FC11B030BD582300200D0A0000A0
:10107000F8B504000D0000262068007830283ADB1F
:10108000206800783A2836DA002700200100C9B22B
:10109000A28889B291420FD221680200D2B2895C43
:1010A000302905DB21680200D2B2895C3A2900DBD5
:1010B00002E07F1C401CE9E73900C9B2206800F05B
:1010C00027FE0600B6F5805F0DD2310089B2884850
:1010D0004088FFF744FC4FF47A7302220AA18A4841
:1010E00001F053FC0EE04FF47A7305228B498648D9
:1010F00001F04BFC06E04FF47A73052287498248E1
:1011000001F043FCF1BD00004F4B00000008020855
:101110000208020803080208040802080508020879
:101120000608020838B590B004000D0003A88649EF
:10113000322202F02BFC8548D0E90023CDE90123BF
:1011400003A80190FE23824890ED020ADFED5C0ABD
:1011500020EE200ABDEEC00A10EE102A02A903A854
:1011600000F0A9FC0520009000237A4A02A903A8F8
:1011700000F016FD4FF47A73BDF80820019962481B
:1011800001F003FC11B030BD07080208080802088E
:10119000090802080A0802080B0802080C080208DD
:1011A0000D0802080E0802080F08020810080208BD
:1011B000110802081208020813080208140802089D
:1011C0001508020880B5FFF7C7FAFFF777FBFFF7AE
:1011D000FDFB61486149C0F8A4136149C0F8B4132C
:1011E0006049C0F8C4136049C0F8D4135F49C0F81F
:1011F000E4135F49C0F8F4135E49C0F804145E4973
:10120000C0F814145D49C0F824145D49C0F83414C2
:101210005C49C0F844145C49C0F854145B49C0F8F8
:1012200064145B49C0F874145A49C0F8841402F07D
:1012300010FC02F0FFFB01BD9024002070B50020DF
:10124000002400252800C0B2062836DA524E2800B5
:10125000C0B200013044407801282CD101200400A4
:101260002800C0B200013044406800280ED000F0D1
:10127000C7F92900C9B2090131444968401A290057
:10128000C9B2090131448968884214D30020290079
:10129000C9B209013144487000F0B2F92900C9B25D
:1012A0000901314448602800C0B22900C9B20901CF
:1012B0003144C96888476D1CC4E72000C0B270BDC6
:1012C0000000C842001002080210020803100208C1
:1012D0000410020805100208061002080710020890
:1012E00008100208091002080A1002080018020873
:1012F000A824002002180208031802080418020893
:1013000005180208C8ED0008B81D0020F4EA00081E
:10131000C0DA0008A8EF0008940A002098EF00083F
:1013200078E60008B0EF0008ACE60008B8EF000867
:10133000E0E60008C0EF000814E70008C8EF000866
:1013400048E70008D0EF00087CE70008D8EF000865
:10135000CC230020A0EF0008A40500202B0A0008E1
:101360007D0A0008050B0008710B00081D0C000821
:101370007D0C0008290D0008910D00082D0E0008B5
:101380008D0E0008270F0008810F000817100008B5
:1013900071100008251100083C05002010B504005C
:1013A000002C01D101200EE02079002804D100207A
:1013B0006071200002F09CFB02202071002020615F
:1013C00001202071002010BD10B4020050790128C6
:1013D00001D102202DE0012050710220107110680F
:1013E0000368012411F01000844023431068036057
:1013F00000290CD11068006810F03C00042813D1BB
:101400001068406850F00100136858600CE01068E4
:10141000006810F47010B0F5802F05D11068406896
:1014200050F00200136858600120107100205071C4
:10143000002010BC704738B40400002000902068E1
:101440000090002905D1009D12F108004519009572
:1014500004E0009D12F11400451900950098036006
:10146000002032BC70472DE9F04705000E00140043
:101470005FF0000930690128306804286879012884
:1014800001D10220BAE00120687102202871306881
:1014900004285AD100F0B4F88146002C1CD12868E9
:1014A000406B000411D500F0ABF8B0EB0900022846
:1014B000F5D32868406B0004F1D5286950F0080086
:1014C000286103202871032098E0012002F046FBE8
:1014D000B069296808641BE02868406B002811D5B2
:1014E00000F08EF8B0EB09000228F5D32868406BB5
:1014F0000028F1D5286950F00800286103202871E0
:1015000003207BE0012002F029FBB06929684864D0
:101510002868816C40F2FF3214F010008240914341
:10152000F26914F010008240114328688164286831
:10153000C16CFF2214F0100082409143326A14F013
:101540001000824011432868C1643069012810D11D
:101550002868816B1F2214F010008240914370694B
:10156000804614F0100018FA00F001430F002868BC
:1015700087632868C16B072214F0100082409143F2
:101580003268B0680243F068024314F0100012FAA7
:1015900000F001432868C163286803684FF4804C59
:1015A00014F010001CFA00FC33EA0C0328680360F6
:1015B0002868036840F6FC7C14F010001CFA00FC5C
:1015C00033EA0C03D6F804C014F010001CFA00F043
:1015D0000343286803602868D0F800E05FF0C00A81
:1015E00014F010001AFA00FA3EEA0A0E2868C0F851
:1015F00000E001202871002068710020BDE8F0871C
:1016000001480068704700BFC82400200200012084
:101610000B00DBB21B011344587000200B00DBB23F
:101620001B01134458600120704738B504000D00B9
:1016300001202900C9B2090121444870FFF7E0FFE9
:101640002900C9B2090121444860012032BD30B4EB
:10165000002513E050F8042BD30744BFA9F1010380
:101660009A18091F042942F8045BFAD213468C0722
:1016700044BF15809B1CC90748BF1D7050F8041B50
:101680000029E7D130BC704738B504000D00DFF801
:10169000FC010168200000F006F8A84201D30120F7
:1016A00000E0002032BD814204D25FF0FF32101A08
:1016B000081800E0081A704738B52DED048B08EEC5
:1016C000100A0C001500DFED438A2800C0B2FB2889
:1016D00010DBB8EEC89A2800C0B24042C0B200F099
:1016E0008BF829EE009A00212000B0EE490A00F0A4
:1016F000B1F80EE0B8EEC89A2800C0B200F07CF84D
:1017000089EE009A2900C9B22000B0EE490A00F023
:10171000A1F8BDEC048B31BD10B400210A00838810
:1017200092B29A4206D2002203680C00A4B21A5563
:10173000491CF3E70022828010BC704710B40400FB
:1017400013005A1E9BB2002B02D02170641CF7E7D5
:1017500010BC704770B504000D001600DFF82401BE
:1017600000782100C9B2884209D3DFF8242110682B
:10177000002804D0310089B228001268904770BD5B
:1017800038B504000D00280002F0FCF9020092B206
:1017900029002000C0B2FFF7DDFF31BD70B50400A5
:1017A0000D00280002F0EEF9020092B2290020009C
:1017B000C0B2FFF7CFFFDFF8DC603068002807D049
:1017C000280002F0DFF9010089B228003268904752
:1017D00070BD00000000000030B404000D001300D4
:1017E0005A1E9BB2002B04D02B7823706D1C641CF6
:1017F000F5E730BC7047000010B504002000C0B20F
:10180000FB2816DB2000C0B2D0F5807002F0D6F9BC
:1018100041EC110B9FED200B02F0E5F953EC102B7E
:101820000020194902F0E8F902F00AFB00EE100A64
:101830000FE02000C0B202F037FB41EC110B9FED2E
:10184000160B02F0D0F951EC100B02F0F9FA00EE91
:10185000100A10BD38B52DED028B82B0B0EE408A73
:1018600004000D0018EE100A02F02CFBCDE9000177
:101870002A000B49200002F049FB02B0BDEC028BAC
:1018800031BD0000980A00200000F03FE024002055
:10189000E8240020E4240020000000000000244090
:1018A00010F0000838B50400002C01D1012031E00F
:1018B0004CF6CC402168086045F25550216808601C
:1018C000606821684860A06821688860FFF798FE1A
:1018D00005002068C06810F0070F0DD0FFF790FEDC
:1018E000401B41F602018842F3D32068C06810F023
:1018F000070FEED003200DE020680069E168884200
:1019000003D0E0682168086103E04AF6AA20216854
:101910000860002032BD01004AF6AA200A68106063
:101920000020704762F30F2262F31F42401810F04C
:10193000030308D0C91A1FD3DB0748BF00F8012DE5
:1019400028BF20F8022D130030B414461546103974
:1019500028BF20E93C00FAD8490728BF20E90C003D
:1019600048BF40F8042D890028BF20F8022D48BF49
:1019700000F8012D30BC7047C91818BF00F8012DC0
:10198000CB0728BF00F8012D70470268531C036085
:101990001170704701000800C0B2002801D1012079
:1019A00021E00800C0B2FF2801D10A201BE0080096
:1019B000C0B2FE2801D1642015E00800C0B2FD28A5
:1019C00002D14FF47A700EE00800C0B2FC2802D1B8
:1019D00042F2107007E00800C0B2FB2802D1DFF825
:1019E000980300E0012070472DE9F24F82469346AC
:1019F000002000210A260027B046B946009A158823
:101A0000BBF1000F08D5DBF100042D202A0092B2B3
:101A10000AF802006D1C00E05C46200000214246EE
:101A20004B4602F093FA002901D1002808D0A6FB0A
:101A3000080106FB091107FB081180468946ECE7FF
:101A4000404649460A22002302F080FA06000F00B1
:101A5000002F01D1002E28D02000002132003B00B1
:101A600002F074FA3030290089B20AF801006D1CC6
:101A7000A0465FF000092000002132003B0002F088
:101A800065FAA6FB002306FB013307FB0033B8EB26
:101A9000020079EB03010400300039000A22002320
:101AA00002F054FA06000F00D2E7009805802800E3
:101AB000C0B2BDE8F28F2DE9FE4F06000F00904640
:101AC0000020ADF800000020002400215FF0000B92
:101AD000B7F80090B8F1000F02D5D8F1000500E08A
:101AE0004546424639003000FFF77EFFB7F800A0B8
:101AF000002D4FD09DF80800FFF74CFF01008D42EC
:101B000005D20A2045431BF1010B002DF7D15846A1
:101B1000C0B2002821D050460200D2B2324412F89E
:101B2000012C2D2A06D00200D2B24B4692B29BB2B3
:101B30009A4208D130220300DBB2F2541AF1010AB2
:101B4000BBF1010BE3E70200D2B2324412F8012CE0
:101B50000300DBB2F254401EDEE70A20B1FBF0F4D2
:101B600050468346002C15D00A20B4FBF0F45846AA
:101B7000C0B2304410F8010C5946C9B27054BBF1E0
:101B8000010B002CEED12E205946C9B270541AF127
:101B9000010AE7E7A7F800A05046C0B2BDE8FE8FF3
:101BA000F0B4049C00252E00B6B2A6420BD20E88DB
:101BB000771C0F802F00BFB217FA83F7D75DB6B23C
:101BC00087556D1CEFE7F0BC704700002DE9F34F1F
:101BD00081B02DED028B9FED658A00240125002642
:101BE000F7EE008A00273800C0B2202864DA039894
:101BF000F84010F0010004003800C0B2172829DABC
:101C000018EE900A02F05EF982468B462000C0B2C0
:101C100002F04AF9804689463800C0B2D0F1170078
:101C20005FF0FF31484301F0C9FF41EC110B9FED1C
:101C3000500B01F0D8FF51EC100B42464B4602F01E
:101C40009DFA52465B4602F06BFB02F0F9F808EE93
:101C5000900A2FE03800C0B21F2824DA3000C0B24A
:101C600002F022F982468B462000C0B202F01CF935
:101C7000804689463800C0B2173801F09FFF41EC1A
:101C8000110B9FED3B0B01F0AEFF51EC100B4246E8
:101C90004B4602F073FA52465B4602F041FB02F0FB
:101CA000FDFB060006E02000C0B2012802D15FF073
:101CB000FF3005007F1C96E7280040B201F07EFF50
:101CC000804689463000C0B27F3801F077FF41EC92
:101CD000110B9FED270B01F086FF51EC100B4246D4
:101CE0004B4602F04BFA8046894618EE900A02F005
:101CF000E9F842464B4602F041FA02F0A1F800EE44
:101D0000100A049880ED000ABDEC028BBDE8F78F45
:101D100070B4030000220024002000252A000E00D9
:101D2000D2B2F6B2B2421FD22A00D2B29A5C302AA4
:101D30000ADB2A00D2B29A5C3A2A05DA2A00D2B229
:101D40009A5C303A140001E0002214002A00D2B25A
:101D5000002A03D12200D2B2100003E00A2250432D
:101D600050FA84F06D1CD9E770BC70470000000089
:101D70000000000000000040A086010010B42DED1E
:101D8000010A00206A460023042B07D2D45C190004
:101D9000C9B2C9008C4020435B1CF5E712BC7047F8
:101DA0002DE9F74F82B000265FF0000A5FF0000BCC
:101DB00054465D46002000900127DDF80C80DDF8D8
:101DC0000890049810F0070F2BD10498C008002148
:101DD00082468B4602F0D8FB4FF47A7002F0ECFB9F
:101DE00000200600300080B20021594517D801D3E9
:101DF000504514D2D8E9000104000D0022002B0048
:101E00004946002002F068FB07003800C0B20128F4
:101E100005D019F1080918F10808761CE2E702F06C
:101E2000C4FB3800C0B205B0BDE8F08F70B5040047
:101E3000012502F0A9FB06004FF47A7002F0BCFB0A
:101E40003000C0B200280FD1C4F3CC20B0F5807FA1
:101E500005D20121C4F3CC2002F01AFC04E00121D8
:101E6000C4F3CC2002F014FC4FF47A7002F0A4FB0F
:101E700005000548016831F00201016002F095FBA0
:101E80002800C0B270BD0000142002402DE9F041CE
:101E9000C0B004000D00160000274FF4807100222E
:101EA000E8464046FFF73EFD2000FFF7BFFFA520B4
:101EB0008DF8000030008DF801005FF0000840460A
:101EC000310080B289B288420AD2404680B2285C92
:101ED0006946424692B21144887018F10108EEE753
:101EE000B61C300080B20821B6B20836361A90FB14
:101EF000F1F001FB0066320092B269462000FFF764
:101F00004FFF002801D0002000E0012040B0BDE8D4
:101F1000F0812E0002000020704730B40200DFF88C
:101F2000BC09002304688588635583885B1C838013
:101F3000DFF8AC391B7804688588635583885B1C9F
:101F40008380012030BC7047F8B504000D000020EC
:101F500000212E0022683300DBB2D25C23683700F8
:101F6000FFB23B445F7857EA02273A0092B2B2F5DB
:101F7000807F23DA380080B200281FD0DFF85C09A8
:101F800021683200D2B2895C02688388D15481888A
:101F9000491C818021683200D2B21144497802681C
:101FA0008388D1548188491C8180DFF834094178C5
:101FB0003800C0B200F098FA012000E00020F2BD25
:101FC00030B40200DFF814090023046885886355E3
:101FD00083885B1C8380DFF808395B780468858818
:101FE000635583885B1C8380012030BC7047F8B543
:101FF00004000D00002000212E0022683300DBB217
:10200000D25C23683700FFB23B445F7857EA02276F
:102010003A0092B20B2A1FDADFF8C00821683200BA
:10202000D2B2895C02688388D1548188491C81803E
:1020300021683200D2B21144497802688388D154B1
:102040008188491C81803900C9B2DFF89408007882
:1020500000F04AFA012000E00020F2BDF8B50400CB
:102060000D000026DFF87C0890ED010AFFF786FEE0
:102070000100DFF868080A00120A03688788DA5549
:102080008288521C828002688388D1548288521CC4
:1020900082800A00120E03688788DA558288521CF3
:1020A00082800A00120C03688788DA558288521CE5
:1020B00082800120F2BD00002DE9F0412DED028B60
:1020C00004000D00002100202E0022683300DBB246
:1020D000D25C23683700FFB23B445F7857EA02279F
:1020E0003A0092B2012A3CD1DFF8F00721683200B1
:1020F000D2B2895C02688388D1548188491C81806E
:1021000021683200D2B21144497802688388D154E0
:102110008188491C8180DFF8D0874046FFF786FE22
:10212000DFF8C0070021C1609FEDB08A80ED048A0E
:1021300080ED058ADFEDDC8AC0ED068AC0ED078AF6
:10214000DFF8A807FFF772FE4046FFF76FFEDFF8E3
:10215000A00700210170C0ED028A80ED018A0120F4
:1021600000E00020BDEC028BBDE8F081F8B5040072
:102170000D000026DFF86C0790ED030AFFF7FEFD67
:102180000100DFF858070A00120A03688788DA5549
:102190008288521C828002688388D1548288521CB3
:1021A00082800A00120E03688788DA558288521CE2
:1021B00082800A00120C03688788DA558288521CD4
:1021C00082800120F2BD2DE9F84304000D000026B5
:1021D000002000900027A84620684146C9B2084464
:1021E000817820684246D2B21044C07850EA01207B
:1021F00021684246D2B2895C22684346DBB21A4467
:1022000092F8019059EA012959EA0049DFF8CC0611
:1022100021684246D2B2895C02688388D1548188A1
:10222000491C818021684246D2B211444978026833
:102230008388D1548188491C818021684246D2B26A
:102240001144897802688388D1548188491C81802F
:1022500021684246D2B21144C97802688388D154B9
:102260008188491C818069464846FFF7AFFC9DED97
:10227000000A0020FEF788F90120BDE8F283F8B5D6
:1022800004000D000026DFF85C0690ED050AFFF75C
:1022900075FD0100DFF844060A00120A036887880A
:1022A000DA558288521C828002688388D1548288E1
:1022B000521C82800A00120E03688788DA558288D1
:1022C000521C82800A00120C03688788DA558288C3
:1022D000521C82800120F2BD2DE9F84304000D005C
:1022E0000026002000900027A84620684146C9B279
:1022F0000844817820684246D2B21044C07850EA3F
:10230000012021684246D2B2895C22684346DBB292
:102310001A4492F8019059EA012959EA0049DFF874
:10232000BC0521684246D2B2895C02688388D154D8
:102330008188491C818021684246D2B21144497883
:1023400002688388D1548188491C81802168424673
:10235000D2B21144897802688388D1548188491C9B
:10236000818021684246D2B21144C97802688388CC
:10237000D1548188491C818069464846FFF726FC74
:102380009DED000A0120FEF7FFF80120BDE8F28371
:10239000F8B504000D000026DFF8480590ED070AA7
:1023A000FFF7ECFC0100DFF834050A00120A0368AD
:1023B0008788DA558288521C828002688388D154CB
:1023C0008288521C82800A00120E03688788DA55C0
:1023D0008288521C82800A00120C03688788DA55B2
:1023E0008288521C82800120F2BD00000000484219
:1023F0002DE9F84304000D0000260020009000277E
:10240000A84620684146C9B20844817820684246FF
:10241000D2B21044C07850EA012021684246D2B2BC
:10242000895C22684346DBB21A4492F8019059EA6B
:10243000012959EA0049DFF8A40421684246D2B2D2
:10244000895C02688388D1548188491C8180216815
:102450004246D2B21144497802688388D1548188B7
:10246000491C818021684246D2B2114489780268B1
:102470008388D1548188491C818021684246D2B228
:102480001144C97802688388D1548188491C8180AD
:1024900069464846FFF79AFB9DED000A0220FEF7C9
:1024A00073F80120BDE8F2830000164438B504003B
:1024B0000D0001224FF480715FF0904002F0D7FAD6
:1024C0000A2001F04BFB4FF47A732A0092B22100EC
:1024D000DFF8200400F059FA00224FF480715FF019
:1024E000904002F0C4FA31BD7CB504000D00082113
:1024F00000226E463000FFF715FA0026DFF8E003F1
:1025000004704570694602783300DBB2CA54761C09
:1025100040783200D2B28854761C3200D2B292B2E5
:102520006946DFF8D403FFF7B1FC73BDDFF8C803D9
:102530000078C0B2FF280AD0DFF8A403DFF8BC138C
:1025400009780170DFF8B8130978417005E0DFF809
:1025500090031A2101700321417070472DE9F04F5B
:1025600087B0040000275FF000085FF00009002535
:10257000DFF89023D2E90001CDE902010026DFF85F
:102580008823D2E90001CDE90401DFF850A35046C9
:10259000FFF7C2F8A0880828C0F29B812068A188B4
:1025A000084410F8010C2168A288114411F8021C9B
:1025B00051EA0021ADF81810A188891E206802F0A8
:1025C00077FAADF81A00BDF81A00BDF81810884265
:1025D00040F07D8120680078C1490978884240F048
:1025E0007681206880782168CF7857EA00272068B4
:1025F0004078032805D006286CD0102800F0C3804E
:1026000061E1206800792168497951EA00210D00D3
:102610005FF001084046C0B2082836DA5FF01409BE
:10262000DFF8E8B24046C0B209FB00F05844406809
:10263000390089B2884225D1280080B24146C9B20A
:1026400009FB01F15944896888421BDB0021002005
:102650004246D2B209FB02F25A44D268904701289E
:102660000FD14046C0B209FB00F0584480682D1AD3
:102670004046C0B209FB00F90BEB09008068C7199E
:1026800000E002E018F10108C4E7BAF804000028ED
:102690001FD0BAF80400022190FBF1F201FB1200F6
:1026A000002816D1DAF800000190BAF804000221DF
:1026B00090FBF1F080B200903B009BB203222068B7
:1026C000017804A802F012FABDF814100498FFF77C
:1026D000EDFEFAE004200100C9B2A288921E9142E8
:1026E0000EDA21680200D2B2895C029ABDF80C3081
:1026F000D154BDF80C10491CADF80C10401CEAE791
:102700005FF001084046C0B2082817DA14227F4B58
:102710004046C0B2504318444068390089B28842EC
:1027200009D1002102A8C4465FFA8CFC02FB0CF21E
:102730001A441269904718F10108E3E7BAF8040057
:1027400000281FD0BAF80400022190FBF1F201FB2F
:102750001200002816D1DAF800000190BAF804003F
:10276000022190FBF1F080B200903B009BB2062268
:102770002068017804A802F00AFABDF81410049841
:10278000FFF794FEA1E00020060020680079216890
:10279000497951EA00210D0007200100C9B2A28841
:1027A000921E91420EDA21680200D2B2895C029A2E
:1027B000BDF80C30D154BDF80C10491CADF80C100C
:1027C000401CEAE7280080B24000216889798842ED
:1027D0004DD1BDF80C002168897989B2884246D173
:1027E0005FF001084046C0B2082840DA5FF01409E3
:1027F000DFF818B14046C0B209FB00F05844406809
:10280000390089B288422FD1280080B24146C9B22E
:1028100009FB01F159448968884225DB310089B2FE
:1028200002A84246D2B209FB02F25A44126990470A
:10283000012818D14046C0B209FB00F05844806816
:10284000400010FA86F64046C0B209FB00F058443A
:1028500080682D1A4046C0B209FB00F90BEB090055
:102860008068C71900E002E018F10108BAE7BAF879
:102870000400002826D0BAF80400022190FBF1F2EF
:1028800001FB120000281DD1206880782168C978DA
:1028900051EA00210F00DAF800000190BAF80400B4
:1028A000022190FBF1F080B200903B009BB210221D
:1028B0002068017804A802F06AF9BDF814100498A1
:1028C000FFF7F4FD01E0002004E0012002E0002019
:1028D00000E0002007B0BDE8F08F0000F404002005
:1028E000940A0020CC2300200008020800100208EF
:1028F00090240020A81C002000000208020002080A
:102900000300020888EF000890EF00082804002068
:1029100010B50400002C01D1012035E0A069002889
:10292000FFD1E06F002805D1002084F87800200056
:1029300002F0FEF92420E0672068006840084000AB
:1029400021680860606A002802D0200000F038FC8E
:10295000200000F0B9FA012801D1012014E020681C
:10296000406830F49040216848602068806830F00A
:102970002A00216888602068006850F00100216802
:102980000860200000F089FC10BD2DE9FC4706001E
:102990000D0017009846F06F202859D1002D03D064
:1029A000380080B2002801D1012052E00020C6F892
:1029B00084002120F067FEF723FE8146A6F85070C0
:1029C000A6F85270B068B0F5805F05D13069002874
:1029D00002D10024AA4602E02C005FF0000AB6F8FB
:1029E0005200002822D0CDF800804B4600228021E2
:1029F000300000F0BBFC002803D02020F06703204B
:102A000027E0002C08D1BAF80000C005C00D3168DD
:102A100008851AF1020A03E0207831680885641CF1
:102A2000B6F85200401EA6F85200D8E7CDF8008054
:102A30004B4600224021300000F098FC002803D0D3
:102A40002020F067032004E02020F067002000E051
:102A50000220BDE8F68770B505000C001600D5F819
:102A60008000202824D1002C03D0300080B2002820
:102A700001D101201DE0002028662868DFF84414F9
:102A800088420ED02868406800020AD5286850E8BD
:102A9000000F50F0806001002A6842E80010002812
:102AA000F4D1320092B22100280000F0AEFC00E028
:102AB000022070BD70B50400E56FD4F88060206816
:102AC0008068000624D5212D22D12068083050E8E6
:102AD000000F30F080000100206810F1080242E889
:102AE00000100028F1D1206F00280ED0206F02F0D6
:102AF000BBFB002809D0206F02F088FC202804D1FD
:102B00001020C4F8840003202CE0200000F053FDC6
:102B100020688068400624D5222E22D12068083003
:102B200050E8000F30F040000100206810F108026A
:102B300042E800100028F1D1606F00280ED0606FCD
:102B400002F092FB002809D0606F02F05FFC2028A1
:102B500004D11020C4F88400032003E0200000F01A
:102B600038FD002070BD2DE9F04706003068C769C8
:102B70003068D0F800803068D0F8089040F60F0434
:102B80003C40002C0BD1B80609D55FEA886006D519
:102B9000B06E002802D03000B16E88478FE1002C63
:102BA00000F0AA805FEAC97005D4DFF80C0618EAC5
:102BB000000F00F0A18017F00100C0B200280BD078
:102BC0005FEAC85008D5012031680862D6F8840051
:102BD00050F00100C6F88400B8070DD519F00100C7
:102BE000C0B2002808D0022031680862D6F88400FC
:102BF00050F00400C6F8840078070DD519F00100E4
:102C0000C0B2002808D0042031680862D6F88400D9
:102C100050F00200C6F88400380710D55FEA8860DB
:102C200004D419F00100C0B2002808D0082031688F
:102C30000862D6F8840050F00800C6F88400380511
:102C40000CD55FEA481009D54FF40060316808627E
:102C5000D6F8840050F02000C6F88400D6F884002E
:102C6000002848D0B80608D55FEA886005D5B06E60
:102C7000002802D03000B16E8847D6F884000500E5
:102C800030688068400602D415F0280F2DD030003F
:102C900000F09FFC30688068400622D5306808301C
:102CA00050E8000F30F040000100306810F10802D9
:102CB00042E800100028F1D1706F00280DD0DFF835
:102CC000FC04716F8863706F02F0F8FA002812D06C
:102CD000706F716F896B88470DE0300002F0ECFB7C
:102CE00009E0300002F0E8FB05E0300002F0E4FB10
:102CF0000020C6F88400E2E0306E012840F0BD807C
:102D0000F80640F1BA805FEAC86040F1B680102052
:102D1000316808623068806840066DD5706F006861
:102D2000D0F804A0504680B2002852D05046B6F8E1
:102D3000581080B288424CD2A6F85AA0706F006832
:102D40000068800639D4306850E8000F30F4807095
:102D50000100326842E800100028F4D130680830E1
:102D600050E8000F400840000100306810F10802F0
:102D700042E800100028F1D13068083050E8000F18
:102D800030F040000100306810F1080242E8001005
:102D90000028F1D12020C6F880000020306630687D
:102DA00050E8000F30F010000100326842E80010D7
:102DB0000028F4D1706F02F057FA02207066B6F85E
:102DC0005810B6F85A00091A89B2300002F055FBC3
:102DD00011E05046B6F8581080B288420BD1706F9F
:102DE00000680068800606D502207066B6F85810A4
:102DF000300002F042FB62E0B6F85800B6F85AA084
:102E0000B0EB0A0AB6F85A00002835D0504680B216
:102E1000002831D0306850E8000F30F49070010085
:102E2000326842E800100028F4D13068083050E8D9
:102E3000000F400840000100306810F1080242E82D
:102E400000100028F1D12020C6F880000020306654
:102E50000020B066306850E8000F30F0100001002C
:102E6000326842E800100028F4D102207066514612
:102E700089B2300002F001FB21E0F8020AD55FEAD6
:102E8000492007D55FF4801031680862300002F0F5
:102E9000A5FB14E0380609D55FEA086006D5F06E98
:102EA000002802D03000F16E884708E0780606D589
:102EB0005FEA486003D5300000F055FCFFE7BDE84D
:102EC000F0870000008000402DE9F0470400002654
:102ED000DFF8A81920688842FFD0A2682069024361
:102EE00060690243E069024320680368DFF89009E3
:102EF00003401343206803602068436833F4405361
:102F0000E068034320684360D4F818802068884252
:102F100002D0206A50EA08082068806830F43060E7
:102F200058EA0000226890602068DFF8482A904242
:102F300016D1DFF8440A006810F00300002805D01D
:102F4000022805D006D3032806D007E0012760E059
:102F500002275EE004275CE008275AE0102758E0CB
:102F60002068DFF8182A904217D1DFF80C0A0068B1
:102F700010F00C00002806D0042808D0082804D03F
:102F80000C2806D007E0002743E0022741E0042791
:102F90003FE008273DE010273BE02068DFF8E0290C
:102FA000904217D1DFF8D009006810F030000028F7
:102FB00006D0102808D0202804D0302806D007E0FA
:102FC000002726E0022724E0042722E0082720E04B
:102FD00010271EE0206888421AD1DFF89C0900689B
:102FE00010F44060002809D0B0F5806F0AD0B0F529
:102FF000006F05D0B0F5406F06D007E0002708E06D
:10300000022706E0042704E0082702E0102700E07A
:1030100010272068884246D13800C0B2002806D068
:10302000022808D0042809D008280BD00DE002F0AF
:1030300045FF81460DE0DFF84C990AE002F0D1FE31
:10304000814606E04FF4004903E05FF000090120EB
:103050000600B9F1000F00F0A5806168032041432C
:10306000894505D361684FF480504143494502D2F8
:103070000120060096E04FF480726068400800214D
:10308000E2FB09016268002300F060FF0500B5F56E
:10309000407F05D3B5F5801F02D22068C56081E06E
:1030A000012006007EE0E069B0F5004F41D1380014
:1030B000C0B2002808D001280AD002280CD0042869
:1030C0000DD008280FD011E002F0F8FE814611E083
:1030D00002F001FF81460DE0DFF8A8980AE002F057
:1030E00080FE814606E04FF4004903E05FF00009EE
:1030F00001200600B9F1000F54D06068400810EBC1
:1031000049006168B0FBF1F00500102D0ED3B5F554
:10311000803F0BD24FF6F0712940C5F342000143C6
:103120008A46504680B22168C8603BE00120060014
:1031300038E03800C0B2002808D001280AD00228A0
:103140000CD004280DD008280FD011E002F0B6FEF4
:10315000814611E002F0BFFE81460DE0DFF82498C1
:103160000AE002F03EFE814606E04FF4004903E02B
:103170005FF0000901200600B9F1000F12D060686D
:1031800019EB50006168B0FBF1F00500102D07D37A
:10319000B5F5803F04D2280080B22168C86001E004
:1031A000012006000020A0660020E0663000C0B2CA
:1031B000BDE8F08700000000200100044D37000842
:1031C00090F82410090707D501684A6832F40042D4
:1031D000416B0A4301684A6090F82410C90707D57B
:1031E00001684A6832F40032816A0A4301684A6021
:1031F00090F82410890707D501684A6832F48032B4
:10320000C16A0A4301684A6090F82410490707D54B
:1032100001684A6832F48022016B0A4301684A60FF
:1032200090F82410C90607D501688A6832F48052E4
:10323000816B0A4301688A6090F82410890607D5DB
:1032400001688A6832F40052C16B0A4301688A60DF
:1032500090F82410490613D501684A6832F48012A8
:10326000016C0A4301684A60016CB1F5801F07D107
:1032700001684A6832F4C002416C0A4301684A603E
:1032800090F82410090607D501684A6832F4002234
:10329000816C0A4301684A60704738B50400002019
:1032A000C4F88400FEF7ACF9050020680068000748
:1032B0001DD57FF07E4000902B0000225FF40011AE
:1032C000200000F053F8002811D0206850E8000FCB
:1032D00030F080000100226842E800100028F4D19C
:1032E0002020E067002084F8780003203DE020687B
:1032F000006840072CD57FF07E4000902B00002214
:103300005FF48001200000F031F8002820D0206810
:1033100050E8000F30F490700100226842E800107D
:103320000028F4D12068083050E8000F4008400021
:103330000100206810F1080242E800100028F1D1D5
:103340002020C4F88000002084F8780003200CE0DE
:103350002020E0672020C4F88000002020660020A4
:103360006066002084F87800002032BD2DE9F0412D
:1033700005000E0090461F00069C2868C06930407A
:10338000B04201D1012000E000204146C9B288428C
:1033900038D114F1010FF0D0FEF732F9C01B84428E
:1033A00001D3002C01D103202DE0286800684007DC
:1033B000E3D5802EE1D0402EDFD02868C069000719
:1033C0000DD5082029680862280000F002F90820BD
:1033D000C5F88400002085F87800012013E02868F3
:1033E000C0690005C9D54FF400602968086228004B
:1033F00000F0EFF82020C5F88400002085F8780060
:10340000032000E00020BDE8F08130B403005965DE
:10341000A3F85820A3F85A20002098669868B0F5C1
:10342000805F0BD11869002804D140F2FF10A3F887
:103430005C0023E0FF20A3F85C001FE098680028F0
:103440000AD11869002803D1FF20A3F85C0015E019
:103450007F20A3F85C0011E09868B0F1805F0AD18A
:103460001869002803D17F20A3F85C0006E03F2004
:10347000A3F85C0002E00020A3F85C000020C3F881
:1034800084002220C3F880001868083050E8000F3C
:1034900050F001000400186810F1080545E80040EC
:1034A0000028F1D19868B0F5805F06D1186900282E
:1034B00003D10FF2D130986602E00FF2D520986662
:1034C000186900280BD0186850E8000F50F490706D
:1034D00004001D6845E800400028F4D10AE018689F
:1034E00050E8000F50F0200004001D6845E800403F
:1034F0000028F4D1002030BC704770B504000D00E6
:1035000016006565A4F858600020C4F884002220E5
:10351000C4F88000606F002821D00FF21510616F91
:10352000C8620FF2B110616F08630FF2D110616FC2
:1035300048630020616F886333009BB2626D20682E
:1035400010F12401606F01F043FE002807D0102025
:10355000C4F884002020C4F8800001202AE02069FB
:1035600000280AD0206850E8000F50F48070010055
:10357000226842E800100028F4D12068083050E8A2
:10358000000F50F001000100206810F1080242E82D
:1035900000100028F1D12068083050E8000F50F0EA
:1035A00040000100206810F1080242E800100028E5
:1035B000F1D1002070BD016851E8001F31F0C00159
:1035C0000A00036843E800210029F4D12021C167E3
:1035D0007047016851E8001F31F490710A000368D8
:1035E00043E800210029F4D10168083151E8001FA7
:1035F000490849000A00016811F1080343E8002165
:103600000029F1D1016E01290AD1016851E8001F9A
:1036100031F010010A00036843E800210029F4D1C9
:103620002021C0F8801000210166002181667047CA
:1036300038B50400A56A2068006880063AD40020E6
:10364000A5F85A00286850E8000F30F48070010097
:103650002A6842E800100028F4D12868083050E8B1
:10366000000F400840000100286810F1080242E8FD
:1036700000100028F1D12868083050E8000F30F021
:1036800040000100286810F1080242E800100028FC
:10369000F1D12020C5F88000286E01280AD12868C1
:1036A00050E8000F30F0100001002A6842E80010D6
:1036B0000028F4D100206866286E012805D1B5F8ED
:1036C0005810280001F0D9FE02E0280001F0BAFEEF
:1036D00031BD000038B50400A56A01206866286E77
:1036E000012807D1B5F85810490889B2280001F01F
:1036F000C4FE02E0280002F071FC31BDF8B5040000
:10370000A56AEE6FD5F8807028688068000607D536
:10371000212E05D10020A5F852002800FFF74BFF0D
:1037200028688068400607D5222F05D10020A5F81B
:103730005A002800FFF74DFFD5F8840050F0100024
:10374000C5F88400280001F0B7FEF1BD38B50400CB
:10375000A56A0020A5F85A000020A5F8520028000C
:1037600001F0AAFE31BD10B50400206850E8000F3A
:1037700030F040000100226842E800100028F4D137
:103780002020E0670020E066200002F028FC10BD49
:1037900070B50500B5F85C60D5F88000222866D1C8
:1037A0002868808C040016EA0400696D0870686D52
:1037B000401C6865B5F85A00401EA5F85A00B5F8D7
:1037C0005A00002859D1286850E8000F30F4907052
:1037D00001002A6842E800100028F4D12868083067
:1037E00050E8000F400840000100286810F108026E
:1037F00042E800100028F1D12020C5F88000002008
:10380000A8660020686628681C4988420ED028688F
:10381000406800020AD5286850E8000F30F0806048
:1038200001002A6842E800100028F4D1286E01281F
:1038300019D100202866286850E8000F30F01000E9
:1038400001002A6842E800100028F4D12868C06905
:10385000C00602D5102029680862B5F85810280063
:1038600001F00BFE09E0280001F0ECFD05E02868FE
:10387000008B50F008002968088370BD008000406C
:10388000F369FFEFF8B50500B5F85C70D5F8800076
:10389000222867D12868808C0400686D060017EA2A
:1038A00004003080686D801C6865B5F85A00401EC1
:1038B000A5F85A00B5F85A00002859D1286850E8F0
:1038C000000F30F4907001002A6842E800100028D0
:1038D000F4D12868083050E8000F4008400001008B
:1038E000286810F1080242E800100028F1D12020D9
:1038F000C5F880000020A866002068662868224974
:1039000088420ED02868406800020AD5286850E82E
:10391000000F30F0806001002A6842E800100028A3
:10392000F4D1286E012819D100202866286850E8B3
:10393000000F30F0100001002A6842E80010002853
:10394000F4D12868C069C00602D510202968086231
:10395000B5F85810280001F090FD09E0280001F0AA
:1039600071FD05E02868008B50F008002968088385
:10397000F1BD0000003801408810024000440040C2
:10398000004800400024F4000080004062B38B0730
:1039900008D0521E11F8013B00F8013B00F02480D2
:1039A0008B07F6D1830740F0208000BF103A07D381
:1039B00030B4B1E83810103AA0E83810F9D230BC71
:1039C000530724BFB1E80810A0E8081044BF51F81D
:1039D000043B40F8043BD20724BF31F8022B20F807
:1039E000022B44BF0B7803707047121F17D35B0084
:1039F00009D151F8043B20F8023B1B0C121F20F8A0
:103A0000023BF6D20BE051F8043B00F8013B1B0AE5
:103A100020F8023B1B0C121F00F8013BF3D238BF09
:103A2000121D521E24BF11F8013B00F8013BF8D8CB
:103A30007047000080B5012217491848FFF70BF8BE
:103A400000220121262002F05AFB262002F06CFB06
:103A500001BD704738B504000D480F490A78036866
:103A600085885A558288521C8280828840F2FF13D2
:103A70009A4201D30022828001220848FEF7EBFF20
:103A800001200449087001210548FDF7CEFD31BD34
:103A9000440A00200125002000250020301D0020C0
:103AA0003C05002018B589B024220021684602F0A8
:103AB00061FB264C264820602000FDF76FFC0028A3
:103AC00001D002F0C6FB00200090002001900020F1
:103AD00002900020039000200490002269462000FC
:103AE000FDF7C1FC002801D002F0B3FB0AB010BD05
:103AF00010B586B004001422002101A802F03AFBA0
:103B00002068134988421ED11248016851F00051C3
:103B10000160006810F00050009000980E480168A5
:103B200051F001010160006810F001000090009860
:103B300010200190032002900020039001A95FF063
:103B4000904000F0F5FD06B010BD000050240020AC
:103B500000740040581002404C10024070B5040040
:103B6000FDF74EFD0500260016F1010F02D00448B6
:103B700000783618FDF744FD401BB042FAD370BD03
:103B8000970A002000F10103810704D010F8011BFF
:103B9000820781B1FAD10268A2F10131914311F09B
:103BA000803104BF50F8042FF6E709BAB1FA81F169
:103BB00000EBD100401CC01A70470000C11768B16B
:103BC0004840401AB0FA80F29040D21CC907C2F5B2
:103BD000846241EA025202EBD021400570470000A6
:103BE00041EC100B01BD80B553EC112B51EC100BC7
:103BF00002F032FBF4E70000F0B540F2FF7581EA15
:103C0000030C0CF0004C15EA11541DBF15EA1357B4
:103C1000AC42AF42E5E0BC41C1F31301C3F313036F
:103C2000801A994143F4801304D2641E4000494134
:103C300080185941C90241EA5051B1FBF3F603FB28
:103C40001611A2FB0675D7EBC020A94102D2761E41
:103C500080185941C90241EA5051B1FBF3FE03FB00
:103C60001E11A2FB0E75D7EBC020A94103D2AEF105
:103C7000010E80185941890241EA9051760546EAC1
:103C80008E2EB1FBF3F603FB1611A2FB0675D7EBE4
:103C90008020A94102D2761E80185941C90241EA0A
:103CA00050514EEA060EB1FBF3F603FB1611A2FBD0
:103CB0000675D7EBC020A94102D2761E8018594163
:103CC000C90241EA5051B1FBF3F703FB1711A2FB04
:103CD0000735D3EBC020A94167F100070CBF0042B4
:103CE00047F0010766F3D5274FEA1E31B80814F5EF
:103CF000806412DDBD0775F1004250EB0E5051EBB0
:103D0000045111F5801F5CBF41EA0C01F0BD4CF07D
:103D10007F6141F0E0410020F0BDBD076D0840EA41
:103D20000E5041F48011D4F10104B4F120060ADAF6
:103D3000C4F120060200E04001FA06F3E140184316
:103D4000B24015430EE0342C13DCC6F1200445EAE2
:103D500040056D0820FA06F2154321FA06F0A1404D
:103D60000D43002175F1004250F1000051EB0C01B0
:103D7000F0BD00205FEA0C01F0BDCFB992185B41A5
:103D8000B3FA83F704BFB2FA82F6BF190B3FB7F15B
:103D900020062FBF02FA06F3BB40C7F1200622FA25
:103DA00006F638BF3343BA401CB1E419641E33E74A
:103DB0007F4231F00041B1FA81F404BFB0FA80F6DD
:103DC000A4190B3CB4F120062FBF00FA06F1A14064
:103DD000C4F1200620FA06F638BF3143A0403C1B50
:103DE0001AE7AC421ABF05EA1357AF4212E050EA95
:103DF00041061CBF52EA4306BFE750EA410730467E
:103E000061461CBF41EA0551F0BD52EA430C08BFB0
:103E1000C143F0BD00204FF4001616EB410F98BFD0
:103E200016EB430F08BF16EB410F24BFC14305E05B
:103E300016EB430F0CBF61464CEA0551F0BD000084
:103E400001F000428B1AA3F16051B1F5801F0ADB2B
:103E5000B1F17F6F1FD242EAC102C10071F100418E
:103E600042EB507070470B15C3F10903212B10D2A0
:103E7000890241EA905180020128494141F0004104
:103E800021FA03F0C3F12003994071F10041504140
:103E90007047100070476FF0000013EB103F5CBFDD
:103EA000000E42EAC0507047014648B1B0FA80F1B6
:103EB0008840C91CC1F58461090501EBD02140058A
:103EC00070470000C0F3C75181B1FF2906D0C1106F
:103ED000400721F0E04101F16051704741020CBF01
:103EE00040F4E0016FF000410020704700F0004115
:103EF00000020AD0B0FA80FC00FA0CF001F1605127
:103F0000A1EB0C5101EBD021400570470CB430B54A
:103F100083B00A4606A90291044600250194009543
:103F200002AB01A9084878441E3002F00BFD019A4B
:103F3000157000284EBF04460198041B204603B0AC
:103F400030BC5DF80CFB00BF43DAFFFFBBBBE1B147
:103F5000B2F5803F80F07E80022A1ED98C46B1FBEC
:103F6000F2F102FB11C31B0443EA1043B3FBF2FC62
:103F700002FB1C3380B240EA0343B3FBF2F002FBC6
:103F8000103240EA0C4000237047022A05D98446CB
:103F9000B0FBF2F002FB10C270474AB105D100F04D
:103FA000010249085FEA3000704700220023704791
:103FB00003F0ACBC0B0002000021002070479042CF
:103FC00071EB030CF6D3B3F5803F2FD2F0B5B3FA03
:103FD00083F7B1FA81F4A7F10F0E3D1B5340CEF1E8
:103FE000200602FA0EF2F3415340B5F10F0746D80E
:103FF0000F3C2C444140C4F12006A040F141414017
:10400000B1FBF3F603FB1611A2FB0645001BA94109
:1040100002D2761E8018594180EA010221FA0EF37D
:1040200062FA0EF200215A403046F0BD30B4B1FBC6
:10403000F3FC03FB1C11A2FB0C45001BA94103D29E
:10404000ACF1010C8018594130BC02460B46604669
:1040500000217047B2F1807F65D3F0B5B2FA82F7E4
:10406000B1FA81F4C7F10F063D1B22FA06F307F1FE
:10407000110EF24120355A40B5F10F07B8D9414031
:10408000C4F12006A040F1414140B1FBF3FC03FB29
:104090001C11A2FB0C45001BA94103D2BCF1010C71
:1040A000801859410F2F12D30F3FC90341EA5041E5
:1040B000B1FBF3F603FB1611A2FB0645D4EBC030AF
:1040C000A94102D2761E8018594146EACC3C07B37A
:1040D0004140C7F12006B840F1414140B1FBF3F641
:1040E00003FB1611A2FB0645001BA94102D2761E56
:1040F0008018594180EA010221FA0EF3C7F1200429
:1041000062FA0EF20CFA07F05A402CFA04F130432E
:10411000F0BD80EA010221FA0EF3002162FA0EF2EC
:1041200060465A40F0BD8C46B1FBF2F102FB11C370
:104130001B0243EA1063B3FBF2FC02FB1C331B02BD
:104140004CEA002043EA1063B3FBF2FC02FB1C3391
:104150001B024CEA002043EA1063B3FBF2FC02FBB3
:104160001C331B024CEA002043EA1063B3FBF2FC51
:1041700002FB1C324CEA002000237047B0B581EAF4
:10418000030C0CF0004C40F2FF7515EA11541DBFF2
:1041900015EA1357AC42AF4239E0E41923EA45531C
:1041A00043F48013C90241F0004141EA505EC70266
:1041B0001100A7FB020200284FF00000EEFB0120D7
:1041C0004FF00001E3FB072118BF42F00102401845
:1041D00000214941E3FB0E01A4F580640F0302D2E4
:1041E00052004041494154F101046CDD470872F12D
:1041F000004250F1000051EB0451A1F580115CBF69
:1042000041EA0C01B0BD4CEA05510020B0BD05EA01
:104210001357AC4214BFAF4241E050EA410E1CBFFD
:1042200052EA430E02E061460020B0BD24423C4405
:104230001BD15FEA070EF6D0090302BF014600203A
:10424000AEF1140EB1FA81F7AEEB070401FA07FEE6
:104250000C37C7F1200100FA07F7C8404EEA000EFC
:1042600023EA455343F48013A2E733F00043B3FA43
:1042700083F704BFB2FA82FE77440B3FE41BB7F129
:10428000200E2FBF02FA0EF3BB40C7F1200E22FA18
:104290000EFE38BF43EA0E03BA40641C82E750EAC0
:1042A000410E14BF52EA430E6FF000014FF40017A5
:1042B00017EB430F8ABF194617EB410FB5E74CEADE
:1042C00005510020B0BDD4F10104B4F120070FDA8C
:1042D000C4F12007520828BF42F0010210FA07F586
:1042E00001FA07F7E1BF2A43E0403843E1400FE01D
:1042F000352C98DCC7F1200452EA400220FA07F27C
:1043000018BF42F0010231FA07F0A1400A43002130
:1043100072F1004250F1000051EB0C01B0BD000001
:1043200070B44FF0004591EA030F43F1F9826B40FE
:10433000841A71EB030604D26E40001BB1411219BE
:1043400073414FF4001C1CEB410F34BF7CEB430660
:1043500083E00C0DA4EB1356362E00F37C80012E67
:1043600045EAC32341DC43EA525312BFD202920210
:104370005B08240545EAC12141EA5051D2EBC02037
:10438000994125D407D1B0FA80F610FA06F162D02F
:104390000020203608E0B1FA81F6B140C6F12002D3
:1043A00020FA02F21143B0404FEAF474B4EB4654E1
:1043B00034F001064FEA74040AD8D6F50016760DDB
:1043C00004F00044F04061FA06F25040F1404840E9
:1043D000C00A40EA415021F0004128BF5FEA500581
:1043E00050F1000044EBD12135E0DB0A45EAC12160
:1043F000C90AB6F120050EDD42EA0242120CC5F1EF
:10440000200603FA06F6EB4042EA06056D429841A3
:1044100061F100010DE062FA06F5F240554063FAE1
:1044200006FC82EA0C02F3405A406D42904161EB77
:10443000030111F4801F05D1641E620502D06D00D6
:104440004041494121F48011430875F1004350F186
:10445000000041EB045170BC70471CEB410F15D2BA
:1044600023F0004352EA43060BD04FEA4C0CBCEB5E
:10447000410F04D80C0D661E342EB7DDEBE7801A11
:10448000994150EA410608BF0021E4E708BF1CEB50
:10449000430F28BF6FF00001DDE70000C1F30A53AE
:1044A00040F2FE329B1A14DDD3F120034FEAE17291
:1044B00008DDC90241EA505141F00040D84080185F
:1044C0005040704703F2E13010B1D24382F0004017
:1044D00070470020704700002DE9F84F82468B4658
:1044E00014001D000026DFF884713878012801D1FE
:1044F000022047E0012038704CF25038404600F06E
:104500005BF881464846C0B2002837D10020786069
:10451000DFF85C010168490506D5016831F4806166
:1045200001600220387701E000203877BAF1000FEF
:1045300007D122002B00584600F071F80120060038
:104540000FE0BAF1010F02D0BAF1020F09D1210038
:10455000584600F071F8BAF1020F02D15FF48020E2
:104560000600404600F028F88146002E04D0DFF80F
:1045700004010168B143016000F09FF80020387029
:104580004846C0B2BDE8F28F00203A490A68002AC6
:1045900009D53C4A3C4B13603C4B13600968002929
:1045A00001D501210800C0B270473248016851F0BE
:1045B000004101600020704770B50400FDF720F84D
:1045C00005002D4A1068C00309D514F1010FF8D079
:1045D000FDF716F8401BA042F3D303201EE011683C
:1045E00026480140002913D0204843680B4343600C
:1045F00011F0404F05D0224B1E6811F04040064399
:104600001E60880002D021F040401060012005E0CB
:104610001068C00701D501201060002070BD10B4E3
:1046200014490C6854F001040C600260BFF36F8FF2
:10463000011D0B6010BC704770B4402304000D00D6
:104640000C4A166856F480261660EFF3108272B694
:104650002E682660241D2D1D5B1E1E00F6B2002E46
:10466000F6D182F3108870BC7047000084030020EC
:10467000002002401420024010200240FAC3020031
:10468000182002400820024023016745AB89EFCD86
:1046900010B4DFF89820136833F47E73C40014F468
:1046A000FF6423431360136853F00203136013681D
:1046B00053F48033136010BC7047DFF86800017F4B
:1046C0000A00D2B2012A03D00A00D2B2032A11D1C1
:1046D000DFF85420136833F400731360136853F445
:1046E00000631360136833F400631360136853F4BA
:1046F000007313600A00D2B2022A03D00A00D2B2B9
:10470000032A0CD1084A136853F4805313601368CA
:1047100033F480531360136853F4806313600022F2
:1047200002777047840300200020024014200240DA
:10473000F8B4030000250868E840002800F0D7809E
:1047400001260F6816FA05F007403A00002A00F02B
:10475000CC80087910F00300012804D0087910F00B
:10476000030002281DD19F685FF0030C2800C0B22F
:1047700040001CFA00FC37EA0C07D1F80CC02800F6
:10478000C0B240001CFA00FC5CEA07079F60586852
:10479000AE40B0434E68C6F30016AE40304304004E
:1047A0005C60087910F0030003280ED0DE68032750
:1047B0002800C0B240008740BE438F682800C0B2C6
:1047C000400087403E433400DC60087910F003006D
:1047D000022818D12800C00803EB8000066A0F27C2
:1047E00015F00700C0B280008740BE430F6915F086
:1047F0000700C0B2800087403E4334002800C00854
:1048000003EB800004621E6803272800C0B240004A
:104810008740BE430F7917F003072800C0B240005D
:1048200087403E4334001C60486810F4403F5CD031
:104830009548066856F001060660006810F0010011
:1048400000900098914F2800800857F820605FF092
:104850000F0C15F00300C0B280001CFA00FC36EA11
:104860000C06B3F1904F01D1002414E08848834234
:1048700001D101240FE08748834201D102240AE0DC
:104880008548834201D1032405E08448834201D155
:10489000042400E0072415F00300C0B28000844027
:1048A00026432800800847F820607D4C206890430C
:1048B0004F68FF0200D5104320607A4E346894435D
:1048C0004F68BF0200D514433460774E3068904380
:1048D0004F68BF0300D510433060744E3468944372
:1048E0004F68FF0300D5144334606D1C23E7F1BC0F
:1048F00070472DE9F041030000250800E84000283A
:1049000000F0A880012616FA05F008400200002AEF
:1049100000F09E80DFF874C1280080085CF8200059
:104920000F2715F0030E5FFA8EFE5FEA8E0E17FA60
:104930000EFE1EEA00000400B3F1904F02D15FF0BA
:10494000000E19E05248834202D15FF0010E13E0DD
:104950005048834202D15FF0020E0DE04E48834280
:1049600002D15FF0030E07E04C48834202D15FF0B2
:10497000040E01E05FF0070E15F00300C0B28000E6
:104980001EFA00FE74452CD14848D0F800E03EEAFB
:10499000020EC0F800E04448D0F800E03EEA020E03
:1049A000C0F800E03F48D0F800E03EEA020EC0F850
:1049B00000E03B48D0F800E03EEA020EC0F800E01C
:1049C00015F00300C0B2800017FA00F004002800C0
:1049D00080085CF82000A043AE465FEA9E0E4CF8CB
:1049E0002E005FF0030C1868AE465FFA8EFE5FEA99
:1049F0004E0E1CFA0EFE5EEA000018602800C00889
:104A000003EB800E2800C00803EB8000D0F8208064
:104A100015F00700C0B28000874038EA0707CEF8DB
:104A2000207098682F00FFB27F001CFA07F7B84388
:104A300098605868AE4030EA06065E60DE6828007E
:104A4000C0B240001CFA00FC36EA0C0CC3F80CC0E3
:104A50006D1C52E7BDE8F081020010690B009BB2AB
:104A6000184201D0012000E00020C0B270471300BE
:104A7000DBB2002B03D00B009BB2836102E00B0082
:104A80009BB2836270470000601002400800014042
:104A90000004004800080048000C004800100048CE
:104AA000080401400C0401400404014000040140DA
:104AB00030B403004FF6FF7000248C4213DA1A5D05
:104AC00050400822002A0CD0C50706D580B2400805
:104AD00080F4204090F0010001E080B24008521EB6
:104AE000F0E7641CE9E780B230BC70472DE9F84F6D
:104AF00005000E00170098460A9CDDF82C905FF028
:104B0000000B002029685A4692B28E541BF1010B0B
:104B100029685A4692B28F541BF1010B2100C9B289
:104B200049002A685B469BB2D1541BF1010B5FF030
:104B3000000A504680B2210089B2B0EB410F0CDA76
:104B4000504680B219F8000029685A4692B288543B
:104B50001BF1010B1AF1010AEBE7594689B22868EB
:104B6000FFF7A6FF010028685A4692B281541BF154
:104B7000010B080080B2000A2A685B469BB2D05441
:104B80001BF1010BA5F804B00120BDE8F28F2DE95F
:104B9000F84F05000E00170098460A9CDDF82C908F
:104BA0005FF0000B5FF0000A2868594689B246544E
:104BB0001BF1010B2868594689B247541BF1010BC0
:104BC000404680B2000A29685A4692B288541BF1C6
:104BD000010B2868594689B200F801801BF1010BCE
:104BE0003800C0B2062802D010281DD02CE02000CA
:104BF00080B2012801D000203EE0002082465046CD
:104C000080B2210089B2B0EB410F0CDA504680B27D
:104C100019F8000029685A4692B288541BF1010B1A
:104C20001AF1010AEBE70FE0200080B2000A2968C0
:104C30005A4692B288541BF1010B2868594689B232
:104C400044541BF1010BFFE7594689B22868FFF76E
:104C50002FFF010028685A4692B281541BF1010BC4
:104C6000080080B2000A2A685B469BB2D0541BF150
:104C7000010BA5F804B00120BDE8F28F80B5D7483C
:104C8000D74901604FF41651416000218160002135
:104C9000C160002101610C2141610021816100217D
:104CA000C1610021016200214162FDF731FE00284F
:104CB00001D001F0CEFA01BD80B5CA48CA490160F1
:104CC0004FF416514160002181600021C160002134
:104CD00001610C214161002181610021C16100213C
:104CE000016200214162FDF713FE002801D001F0AE
:104CF000B0FA01BD80B5BD48BD4901605FF4E13146
:104D00004160002181600021C160002101610C210E
:104D10004161002181610021C16100210162002106
:104D20004162FDF7F5FD002801D001F092FA01BDC6
:104D300038B59EB0040014220021684601F01AFA2A
:104D40006022002106A801F015FA2068A4498842D3
:104D500053D10120069000200E9006A802F04AFED2
:104D6000002801D001F075FAA248016851F4804191
:104D70000160006810F48040059005989E48016825
:104D800051F001010160006810F0010005900598E4
:104D90004FF4C06000900220019000200290032098
:104DA00003900720049069465FF09040FFF7C0FC35
:104DB000924D93482860022068600020A86000207F
:104DC000E86080202861002068610020A861002040
:104DD000E86100202862280000F020F9002801D0B6
:104DE00001F037FA6567AC6200220021252001F04E
:104DF00086F9252001F098F9ACE020687A498842CC
:104E000052D10220069000200F9006A802F0F2FD79
:104E1000002801D001F01DFA7A48016851F40031F0
:104E20000160006810F40030059005987248016830
:104E300051F001010160006810F001000590059833
:104E40000C2000900220019000200290032003908B
:104E50000720049069465FF09040FFF769FC6A4DB7
:104E60006A482860022068600020A8600020E8608E
:104E700080202861002068610020A8610020E8618E
:104E800000202862280000F0C9F8002801D001F0B5
:104E9000E0F96567AC6200220021262001F02FF9BD
:104EA000262001F041F955E020685149884251D14E
:104EB000042006900020109006A802F09BFD002818
:104EC00001D001F0C6F94F48016851F4802101601A
:104ED000006810F48020059005984748016851F05B
:104EE00004010160006810F00400059005984FF47B
:104EF0004060009002200190002002900320039067
:104F00000720049069464248FFF712FC414D424891
:104F10002860022068600020A8600020E8608020EF
:104F20002861002068610020A8610020E86100205D
:104F30002862280000F072F8002801D001F089F9F9
:104F40006567AC6200220021272001F0D8F82720F5
:104F500001F0EAF81FB030BD10B504002068204908
:104F6000884211D12348016831F4804101604FF437
:104F7000C0615FF09040FFF7BCFC606F00F0BEF8CE
:104F8000252001F0D8F828E020681749884210D180
:104F90001C48016831F4003101600C215FF0904041
:104FA000FFF7A7FC606F00F0A9F8262001F0C3F816
:104FB00013E020680E4988420FD11248016831F48D
:104FC000802101604FF440611148FFF792FC606F4F
:104FD00000F094F8272001F0AEF810BDA81C0020C6
:104FE00000380140301D002000440040B81D002062
:104FF00000480040601002404C1002402C2200206B
:105000008004024058100240742200206C000240CC
:1050100000080048BC2200203000024030B40100EB
:10502000002901D1012067E00868624A90420AD253
:105030000A68614882181420B2FBF0F080004864CE
:105040005E48086409E00A685D4882181420B2FBD3
:10505000F0F0800048645B480864022081F8250075
:10506000086802686FF30E128B68C868034308690A
:1050700003434869034388690343C8690343086AD3
:1050800003431A43086802608868B0F5804F2AD04D
:10509000086C4A4B984213D14B4803680F2491F88F
:1050A000445015F01C05AC40A343036003684C68F2
:1050B00091F8445015F01C05AC402343036012E006
:1050C000424803680F2491F8445015F01C05AC4089
:1050D000A343036003684C6891F8445015F01C0525
:1050E000AC40234303600020C863012081F8250001
:1050F000002081F82400002030BC704710B401006B
:10510000002901D1012053E00868006840084000F0
:105110000A6810600868274A90420AD20A6826483E
:1051200082181420B2FBF0F0800048642348086421
:1051300009E00A68224882181420B2FBF0F08000CF
:1051400048642048086400200A681060012091F833
:10515000442012F01C0290400A6C5060086C174A00
:1051600090420AD1184802680F2391F8444014F085
:105170001C04A3409A43026009E0144802680F230C
:1051800091F8444014F01C04A3409A4302600020AC
:10519000C862002008630020486300208863002064
:1051A000C863002081F82500002081F82400002039
:1051B00010BC704708040240F8FFFDBF0000024029
:1051C000F8FBFDBF00040240A8000240A804024012
:1051D0002DE9F04104000D0016001F005FF00008EB
:1051E00094F82400012801D102203BE0012084F83A
:1051F000240094F8250001282DD1022084F82500F0
:105200000020E063206800684008400021680860D2
:105210003B0032002900200000F0FAF8206B002843
:1052200006D02068006850F00E00216808600BE08E
:105230002068006830F00400216808602068006879
:1052400050F00A00216808602068006850F00100F2
:105250002168086004E0002084F8240002208046D1
:105260004046C0B2BDE8F0810100002291F825005F
:10527000022806D00420C863002081F82400012001
:105280001BE00868006830F00E000B6818600868C2
:105290000068400840000B681860012091F8443015
:1052A00013F01C0398400B6C5860012081F8250016
:1052B000002081F824001000C0B2704738B5040007
:1052C000002594F82500022804D00420E063012082
:1052D00005001FE02068006830F00E0021680860BB
:1052E000206800684008400021680860012094F8A8
:1052F000441011F01C018840216C4860012084F8A2
:105300002500002084F82400A06B002802D0200093
:10531000A16B88472800C0B232BD70B50400206C74
:10532000056820680668042094F8441011F01C01F8
:1053300010FA01F10D4219D0710717D521680968DB
:10534000890605D42168096831F0040122681160DA
:1053500094F8441011F01C018840216C4860206BC7
:10536000002852D02000216B88474EE0022094F89C
:10537000441011F01C0110FA01F10D421FD0B107C9
:105380001DD521680968890608D42168096831F0AB
:105390000A0122681160012184F8251094F8441054
:1053A00011F01C018840216C4860002084F8240022
:1053B000E06A002829D02000E16A884725E008201B
:1053C00094F8441011F01C01884005421DD03007AC
:1053D0001BD52068006830F00E00216808600120AD
:1053E00094F8441011F01C018840216C48600120A1
:1053F000E063012084F82500002084F82400606B1D
:10540000002802D02000616B884770BDC06B7047D8
:1054100030B4012490F8445015F01C05AC40056CE4
:105420006C60046863608468102C04D10468A26016
:105430000468E16003E00468A1600468E26030BCD5
:105440007047000010B5040020684149096888428F
:1054500002D1012002F0B4FE20683E49096888426A
:1054600002D1012002F0C4FF20683B49096888424C
:1054700002D10120FEF7EEFA10BD38B504000D0090
:10548000206833490968884203D1280080B202F0BD
:1054900097FE20682F490968884203D1280080B20E
:1054A00002F0A6FF20682C490968884203D1280031
:1054B00080B2FEF7CFFA31BD10B504002068244950
:1054C0000968884202D100202449087020682149D7
:1054D0000968884202D102202049087020681E49CC
:1054E0000968884202D104201C49087002211C4826
:1054F000FCF78CF810BD1CB5184C20780090194BA7
:1055000000220021032002F09BFF207800280ED10A
:1055100002F04FFE14480188491C018001881429BB
:1055200003DB0021018002F027FE02F029FE207833
:105530002078022803D102F05AFF02F049FF2078B8
:105540002078042803D1FEF784FAFEF773FA13BD1E
:10555000B81D0020A81C0020301D002005250020BB
:10556000A803002090E90008F624002070B505008B
:105570000C001600D5F8800020282DD1002C03D077
:10558000300080B2002801D1012026E001202866E9
:1055900000206866320092B221002800FDF7ADFFBE
:1055A00001000800C0B2002813D1286E01280ED1D6
:1055B00010202A681062286850E8000F50F0100090
:1055C00002002B6843E800200028F4D101E001200C
:1055D00001000800C0B200E0022070BD704700006A
:1055E0002DE9FE4F0500002D01D101203AE3DFF83F
:1055F0000499D9F8004014F00C04DFF81889D8F8A1
:10560000007017F003072878C00640F1C680002C10
:1056100003D00C2C7AD1012F78D1DFF8D4A8DAF896
:105620000000800704D5A869002801D1012019E3F2
:10563000DAF80000000704D5DAF8000010F0F000F6
:1056400005E0DFF860090068000910F0F000296A41
:1056500088421ED2286A00F05FFC002801D0012099
:1056600000E3DAF8000050F00800CAF80000DAF8A9
:10567000001031F0F001286A0143CAF80010DFF889
:105680002809016831F47F41EA6951EA0221016089
:105690001FE0DAF8000050F00800CAF80000DAF85D
:1056A000001031F0F001286A0143CAF80010DFF859
:1056B000F808016831F47F41EA6951EA022101608A
:1056C000002C06D1286A00F027FC002801D0012018
:1056D000C8E200F086FBDFF8D418D9F80020C2F346
:1056E0000312895C11F01F01C840DFF80C18086034
:1056F000DFF80808006802F0C1FF8DF800009DF88F
:105700000000002849D09DF80000ABE2A8690028FD
:105710002DD0DFF8DC97D9F8000050F00100C9F86F
:105720000000FBF76DFF0600D9F80000800706D4E3
:10573000FBF766FF801B0328F6D3032092E2D9F81B
:10574000000050F00800C9F80000D9F8001031F04E
:10575000F001286A0143C9F80010DFF84C0801681D
:1057600031F47F41EA6951EA0221016015E0DFF876
:105770008097D9F8000040084000C9F80000FBF706
:105780003FFF0600D9F80000800706D5FBF738FF79
:10579000801B0328F6D3032064E22878C00754D581
:1057A000082C03D00C2C0BD1032F09D1DFF84007B4
:1057B0000068800349D56868002846D1012051E27D
:1057C0006868B0F5803F06D1DFF82407016851F41E
:1057D0008031016018E06868B0F5A02F0AD1DFF8C9
:1057E0001007016851F480210160016851F4803193
:1057F000016009E0DFF8F806016831F480310160EA
:10580000016831F480210160686800280ED0FBF740
:10581000F7FE0600DFF8D8060068800315D4FBF712
:10582000EFFE801B6528F5D303201BE2FBF7E8FEA3
:105830000600DFF8BC060068800306D5FBF7E0FE33
:10584000801B6528F5D303200CE22878800752D509
:10585000042C03D00C2C15D1022F13D1DFF89006A5
:105860000068400504D5E868002801D10120F9E16D
:10587000DFF83407016831F0F8512A6951EA026112
:10588000016038E0E86800281FD0DFF86496D9F896
:10589000000050F48070C9F80000FBF7B1FE06006C
:1058A000D9F80000400506D4FBF7AAFE801B0328A8
:1058B000F6D30320D6E1DFF8F006016831F0F851A5
:1058C0002A6951EA0261016015E0DFF82496D9F8EF
:1058D000000030F48070C9F80000FBF791FE06006C
:1058E000D9F80000400506D5FBF78AFE801B032887
:1058F000F6D30320B6E1287800072ED56869002882
:1059000015D0DFF8A096D9F8000050F00100C9F8D2
:105910000000FBF775FE0600D9F8000080071CD4D4
:10592000FBF76EFE801B0328F6D303209AE1DFF815
:105930007496D9F8000040084000C9F80000FBF751
:105940005FFE0600D9F80000800706D5FBF758FE79
:10595000801B0328F6D3032084E12878400740F118
:1059600081805FF00009DFF848A6DAF80000C00087
:105970000DD4DAF8000050F08050CAF80000DAF8D0
:10598000000010F080500190019801208146DFF85E
:1059900024B6DBF80000C00513D4DBF8000050F497
:1059A0008070CBF80000FBF72BFE0600DBF8000050
:1059B000C00506D4FBF724FE801B0328F6D3032082
:1059C00050E1A868012806D1DFF8EC05016851F024
:1059D0000101016017E0A86805280AD1DFF8D805A1
:1059E000016851F004010160016851F0010101609A
:1059F00009E0DFF8C4050168490849000160016851
:105A000031F004010160A868002810D0FBF7F8FD10
:105A10000600DFF8A4050068800719D4FBF7F0FD45
:105A2000801B41F289318842F3D303201AE1FBF74E
:105A3000E7FD0600DFF880050068800708D5FBF762
:105A4000DFFD801B41F289318842F3D3032009E155
:105A50004846C0B2012805D1DAF8000030F0805085
:105A6000CAF80000287880062ED5686A002815D06C
:105A7000DFF84895D9F8000050F00100C9F800009F
:105A8000FBF7BEFD0600D9F8000080071CD4FBF729
:105A9000B7FD801B0328F6D30320E3E0DFF81C9555
:105AA000D9F8000040084000C9F80000FBF7A8FD45
:105AB0000600D9F80000800706D5FBF7A1FD801B82
:105AC0000328F6D30320CDE0A86A002800F0C9809F
:105AD000A86A022840F0A380D8F80000070017F059
